{
  "contracts/Latent.sol": {
    "Latent": {
      "abi": [
        {
          "inputs": [
            {
              "internalType": "bytes",
              "name": "encodedNames",
              "type": "bytes"
            }
          ],
          "stateMutability": "nonpayable",
          "type": "constructor"
        },
        {
          "inputs": [
            {
              "internalType": "address",
              "name": "sender",
              "type": "address"
            },
            {
              "internalType": "uint256",
              "name": "tokenId",
              "type": "uint256"
            },
            {
              "internalType": "address",
              "name": "owner",
              "type": "address"
            }
          ],
          "name": "ERC721IncorrectOwner",
          "type": "error"
        },
        {
          "inputs": [
            {
              "internalType": "address",
              "name": "operator",
              "type": "address"
            },
            {
              "internalType": "uint256",
              "name": "tokenId",
              "type": "uint256"
            }
          ],
          "name": "ERC721InsufficientApproval",
          "type": "error"
        },
        {
          "inputs": [
            {
              "internalType": "address",
              "name": "approver",
              "type": "address"
            }
          ],
          "name": "ERC721InvalidApprover",
          "type": "error"
        },
        {
          "inputs": [
            {
              "internalType": "address",
              "name": "operator",
              "type": "address"
            }
          ],
          "name": "ERC721InvalidOperator",
          "type": "error"
        },
        {
          "inputs": [
            {
              "internalType": "address",
              "name": "owner",
              "type": "address"
            }
          ],
          "name": "ERC721InvalidOwner",
          "type": "error"
        },
        {
          "inputs": [
            {
              "internalType": "address",
              "name": "receiver",
              "type": "address"
            }
          ],
          "name": "ERC721InvalidReceiver",
          "type": "error"
        },
        {
          "inputs": [
            {
              "internalType": "address",
              "name": "sender",
              "type": "address"
            }
          ],
          "name": "ERC721InvalidSender",
          "type": "error"
        },
        {
          "inputs": [
            {
              "internalType": "uint256",
              "name": "tokenId",
              "type": "uint256"
            }
          ],
          "name": "ERC721NonexistentToken",
          "type": "error"
        },
        {
          "anonymous": false,
          "inputs": [
            {
              "indexed": true,
              "internalType": "address",
              "name": "owner",
              "type": "address"
            },
            {
              "indexed": true,
              "internalType": "address",
              "name": "approved",
              "type": "address"
            },
            {
              "indexed": true,
              "internalType": "uint256",
              "name": "tokenId",
              "type": "uint256"
            }
          ],
          "name": "Approval",
          "type": "event"
        },
        {
          "anonymous": false,
          "inputs": [
            {
              "indexed": true,
              "internalType": "address",
              "name": "owner",
              "type": "address"
            },
            {
              "indexed": true,
              "internalType": "address",
              "name": "operator",
              "type": "address"
            },
            {
              "indexed": false,
              "internalType": "bool",
              "name": "approved",
              "type": "bool"
            }
          ],
          "name": "ApprovalForAll",
          "type": "event"
        },
        {
          "anonymous": false,
          "inputs": [
            {
              "indexed": true,
              "internalType": "address",
              "name": "from",
              "type": "address"
            },
            {
              "indexed": true,
              "internalType": "address",
              "name": "to",
              "type": "address"
            },
            {
              "indexed": true,
              "internalType": "uint256",
              "name": "tokenId",
              "type": "uint256"
            }
          ],
          "name": "Transfer",
          "type": "event"
        },
        {
          "inputs": [
            {
              "internalType": "address",
              "name": "to",
              "type": "address"
            },
            {
              "internalType": "uint256",
              "name": "tokenId",
              "type": "uint256"
            }
          ],
          "name": "approve",
          "outputs": [],
          "stateMutability": "nonpayable",
          "type": "function"
        },
        {
          "inputs": [
            {
              "internalType": "address",
              "name": "owner",
              "type": "address"
            }
          ],
          "name": "balanceOf",
          "outputs": [
            {
              "internalType": "uint256",
              "name": "",
              "type": "uint256"
            }
          ],
          "stateMutability": "view",
          "type": "function"
        },
        {
          "inputs": [
            {
              "internalType": "uint256",
              "name": "tokenId",
              "type": "uint256"
            }
          ],
          "name": "burn",
          "outputs": [],
          "stateMutability": "nonpayable",
          "type": "function"
        },
        {
          "inputs": [],
          "name": "contentId",
          "outputs": [
            {
              "internalType": "string",
              "name": "",
              "type": "string"
            }
          ],
          "stateMutability": "view",
          "type": "function"
        },
        {
          "inputs": [],
          "name": "contractURI",
          "outputs": [
            {
              "internalType": "string",
              "name": "",
              "type": "string"
            }
          ],
          "stateMutability": "pure",
          "type": "function"
        },
        {
          "inputs": [],
          "name": "description",
          "outputs": [
            {
              "internalType": "string",
              "name": "",
              "type": "string"
            }
          ],
          "stateMutability": "view",
          "type": "function"
        },
        {
          "inputs": [
            {
              "internalType": "uint256",
              "name": "tokenId",
              "type": "uint256"
            }
          ],
          "name": "getApproved",
          "outputs": [
            {
              "internalType": "address",
              "name": "",
              "type": "address"
            }
          ],
          "stateMutability": "view",
          "type": "function"
        },
        {
          "inputs": [
            {
              "internalType": "address",
              "name": "owner",
              "type": "address"
            },
            {
              "internalType": "address",
              "name": "operator",
              "type": "address"
            }
          ],
          "name": "isApprovedForAll",
          "outputs": [
            {
              "internalType": "bool",
              "name": "",
              "type": "bool"
            }
          ],
          "stateMutability": "view",
          "type": "function"
        },
        {
          "inputs": [],
          "name": "name",
          "outputs": [
            {
              "internalType": "string",
              "name": "",
              "type": "string"
            }
          ],
          "stateMutability": "view",
          "type": "function"
        },
        {
          "inputs": [
            {
              "internalType": "uint256",
              "name": "tokenId",
              "type": "uint256"
            }
          ],
          "name": "ownerOf",
          "outputs": [
            {
              "internalType": "address",
              "name": "",
              "type": "address"
            }
          ],
          "stateMutability": "view",
          "type": "function"
        },
        {
          "inputs": [
            {
              "internalType": "address",
              "name": "from",
              "type": "address"
            },
            {
              "internalType": "address",
              "name": "to",
              "type": "address"
            },
            {
              "internalType": "uint256",
              "name": "tokenId",
              "type": "uint256"
            }
          ],
          "name": "safeTransferFrom",
          "outputs": [],
          "stateMutability": "nonpayable",
          "type": "function"
        },
        {
          "inputs": [
            {
              "internalType": "address",
              "name": "from",
              "type": "address"
            },
            {
              "internalType": "address",
              "name": "to",
              "type": "address"
            },
            {
              "internalType": "uint256",
              "name": "tokenId",
              "type": "uint256"
            },
            {
              "internalType": "bytes",
              "name": "data",
              "type": "bytes"
            }
          ],
          "name": "safeTransferFrom",
          "outputs": [],
          "stateMutability": "nonpayable",
          "type": "function"
        },
        {
          "inputs": [
            {
              "internalType": "address",
              "name": "operator",
              "type": "address"
            },
            {
              "internalType": "bool",
              "name": "approved",
              "type": "bool"
            }
          ],
          "name": "setApprovalForAll",
          "outputs": [],
          "stateMutability": "nonpayable",
          "type": "function"
        },
        {
          "inputs": [
            {
              "internalType": "bytes4",
              "name": "interfaceId",
              "type": "bytes4"
            }
          ],
          "name": "supportsInterface",
          "outputs": [
            {
              "internalType": "bool",
              "name": "",
              "type": "bool"
            }
          ],
          "stateMutability": "view",
          "type": "function"
        },
        {
          "inputs": [],
          "name": "symbol",
          "outputs": [
            {
              "internalType": "string",
              "name": "",
              "type": "string"
            }
          ],
          "stateMutability": "view",
          "type": "function"
        },
        {
          "inputs": [
            {
              "internalType": "uint256",
              "name": "tokenId",
              "type": "uint256"
            }
          ],
          "name": "tokenAnimation",
          "outputs": [
            {
              "internalType": "string",
              "name": "",
              "type": "string"
            }
          ],
          "stateMutability": "view",
          "type": "function"
        },
        {
          "inputs": [
            {
              "internalType": "uint256",
              "name": "tokenId",
              "type": "uint256"
            },
            {
              "internalType": "string",
              "name": "gateway",
              "type": "string"
            }
          ],
          "name": "tokenAnimation",
          "outputs": [
            {
              "internalType": "string",
              "name": "",
              "type": "string"
            }
          ],
          "stateMutability": "view",
          "type": "function"
        },
        {
          "inputs": [
            {
              "internalType": "uint256",
              "name": "tokenId",
              "type": "uint256"
            }
          ],
          "name": "tokenName",
          "outputs": [
            {
              "internalType": "string",
              "name": "",
              "type": "string"
            }
          ],
          "stateMutability": "view",
          "type": "function"
        },
        {
          "inputs": [
            {
              "internalType": "uint256",
              "name": "tokenId",
              "type": "uint256"
            }
          ],
          "name": "tokenURI",
          "outputs": [
            {
              "internalType": "string",
              "name": "",
              "type": "string"
            }
          ],
          "stateMutability": "view",
          "type": "function"
        },
        {
          "inputs": [
            {
              "internalType": "address",
              "name": "from",
              "type": "address"
            },
            {
              "internalType": "address",
              "name": "to",
              "type": "address"
            },
            {
              "internalType": "uint256",
              "name": "tokenId",
              "type": "uint256"
            }
          ],
          "name": "transferFrom",
          "outputs": [],
          "stateMutability": "nonpayable",
          "type": "function"
        }
      ],
      "evm": {
        "bytecode": {
          "linkReferences": {},
          "object": "60806040523480156200001157600080fd5b506040516200285b3803806200285b8339810160408190526200003491620004eb565b6200003f8162000097565b600480546001600160a01b0319166001600160a01b039290921691909117905560015b605081116200008f57620000793382600062000146565b50806200008681620005a3565b91505062000062565b505062000629565b60008082604051602001620000ad9190620005cb565b6040516020818303038152906040529050600081604051602001620000d39190620005f3565b60405160208183030381529060405290508051602082016000f092506001600160a01b0383166200013f5760405162461bcd60e51b81526020600482015260116024820152701111541313d65351539517d19052531151607a1b60448201526064015b60405180910390fd5b5050919050565b6000828152602081905260408120546001600160a01b039081169083161562000176576200017681848662000248565b6001600160a01b03811615620001b657620001956000858180620002b7565b6001600160a01b038116600090815260016020526040902080546000190190555b6001600160a01b03851615620001e9576001600160a01b0385166000908152600160208190526040909120805490910190555b60008481526020819052604080822080546001600160a01b0319166001600160a01b0389811691821790925591518793918516917fddf252ad1be2c89b69c2b068fc378daa952ba7f163c4a11628f55a4df523b3ef91a4949350505050565b62000255838383620003e5565b620002b2576001600160a01b0383166200028657604051637e27328960e01b81526004810182905260240162000136565b60405163177e802f60e01b81526001600160a01b03831660048201526024810182905260440162000136565b505050565b8080620002cc57506001600160a01b03821615155b15620003b5576000620002df846200046e565b90506001600160a01b038316158015906200030c5750826001600160a01b0316816001600160a01b031614155b80156200033f57506001600160a01b0380821660009081526003602090815260408083209387168352929052205460ff16155b156200036a5760405163a9fbf51f60e01b81526001600160a01b038416600482015260240162000136565b8115620003b35783856001600160a01b0316826001600160a01b03167f8c5be1e5ebec7d5bd14f71427d1e84f3dd0314c0f7b2291e5b200ac8c7c3b92560405160405180910390a45b505b5050600090815260026020526040902080546001600160a01b0319166001600160a01b0392909216919091179055565b60006001600160a01b03831615801590620004665750826001600160a01b0316846001600160a01b031614806200044157506001600160a01b0380851660009081526003602090815260408083209387168352929052205460ff165b806200046657506000828152600260205260409020546001600160a01b038481169116145b949350505050565b6000818152602081905260408120546001600160a01b031680620004a957604051637e27328960e01b81526004810184905260240162000136565b92915050565b634e487b7160e01b600052604160045260246000fd5b60005b83811015620004e2578181015183820152602001620004c8565b50506000910152565b600060208284031215620004fe57600080fd5b81516001600160401b03808211156200051657600080fd5b818401915084601f8301126200052b57600080fd5b815181811115620005405762000540620004af565b604051601f8201601f19908116603f011681019083821181831017156200056b576200056b620004af565b816040528281528760208487010111156200058557600080fd5b62000598836020830160208801620004c5565b979650505050505050565b600060018201620005c457634e487b7160e01b600052601160045260246000fd5b5060010190565b6000815260008251620005e6816001850160208701620004c5565b9190910160010192915050565b6a600b5981380380925939f360a81b815281516000906200061c81600b850160208701620004c5565b91909101600b0192915050565b61222280620006396000396000f3fe608060405234801561001057600080fd5b506004361061016c5760003560e01c80637284e416116100cd578063c87b56dd11610081578063e725f87711610066578063e725f87714610323578063e8a3d48514610336578063e985e9c51461033e57600080fd5b8063c87b56dd14610308578063d97aa9771461031b57600080fd5b8063a22cb465116100b2578063a22cb465146102cf578063b88d4fde146102e2578063c02137d1146102f557600080fd5b80637284e4161461028b57806395d89b411461029357600080fd5b806342842e0e116101245780636344f311116101095780636344f311146102445780636352211e1461025757806370a082311461026a57600080fd5b806342842e0e1461021e57806342966c681461023157600080fd5b8063081812fc11610155578063081812fc146101cb578063095ea7b3146101f657806323b872dd1461020b57600080fd5b806301ffc9a71461017157806306fdde0314610199575b600080fd5b61018461017f3660046111ca565b61037a565b60405190151581526020015b60405180910390f35b6101be6040518060400160405280600681526020016513185d195b9d60d21b81525081565b6040516101909190611237565b6101de6101d936600461124a565b610417565b6040516001600160a01b039091168152602001610190565b61020961020436600461127f565b610440565b005b6102096102193660046112a9565b61044f565b61020961022c3660046112a9565b6104f8565b61020961023f36600461124a565b610518565b6101be61025236600461124a565b610524565b6101de61026536600461124a565b610565565b61027d6102783660046112e5565b610570565b604051908152602001610190565b6101be6105d1565b6101be6040518060400160405280600681526020017f4c4154454e54000000000000000000000000000000000000000000000000000081525081565b6102096102dd366004611300565b6105ee565b6102096102f03660046113e9565b6105f9565b6101be610303366004611465565b610610565b6101be61031636600461124a565b61068e565b6101be610746565b6101be61033136600461124a565b610762565b6101be6107c7565b61018461034c3660046114c0565b6001600160a01b03918216600090815260036020908152604080832093909416825291909152205460ff1690565b60006001600160e01b031982167f80ac58cd0000000000000000000000000000000000000000000000000000000014806103dd57506001600160e01b031982167f5b5e139f00000000000000000000000000000000000000000000000000000000145b8061041157507f01ffc9a7000000000000000000000000000000000000000000000000000000006001600160e01b03198316145b92915050565b60006104228261086e565b506000828152600260205260409020546001600160a01b0316610411565b61044b8282336108a7565b5050565b6001600160a01b03821661047e57604051633250574960e11b8152600060048201526024015b60405180910390fd5b600061048b8383336108b4565b9050836001600160a01b0316816001600160a01b0316146104f2576040517f64283d7b0000000000000000000000000000000000000000000000000000000081526001600160a01b0380861660048301526024820184905282166044820152606401610475565b50505050565b610513838383604051806020016040528060008152506105f9565b505050565b61044b600082336108b4565b6060610411826040518060400160405280601881526020017f68747470733a2f2f697066732e76762e78797a2f697066730000000000000000815250610610565b60006104118261086e565b60006001600160a01b0382166105b5576040517f89c62b6400000000000000000000000000000000000000000000000000000000815260006004820152602401610475565b506001600160a01b031660009081526001602052604090205490565b60405180610120016040528060fe81526020016120ef60fe913981565b61044b3383836109bd565b61060484848461044f565b6104f284848484610a75565b606061061b8361086e565b50816040518060600160405280602e81526020016120c1602e913961063f85610b9e565b846040518060600160405280602e81526020016120c1602e913961066288610b9e565b6040516020016106779695949392919061150f565b604051602081830303815290604052905092915050565b60606106998261086e565b5060006106a583610b9e565b905061073f816106b485610762565b836040518060600160405280602e81526020016120c1602e9139856107166107118a6040518060400160405280601881526020017f68747470733a2f2f697066732e76762e78797a2f697066730000000000000000815250610610565b610c3e565b60405160200161072b96959493929190611b00565b604051602081830303815290604052610c7f565b9392505050565b6040518060600160405280602e81526020016120c1602e913981565b606061076d8261086e565b50600454600090610786906001600160a01b0316610cc0565b8060200190518101906107999190611cfa565b9050806107a7600185611e02565b815181106107b7576107b7611e15565b6020026020010151915050919050565b606060006040518060400160405280600681526020016513185d195b9d60d21b81525060405180610120016040528060fe81526020016120ef60fe91396040518060600160405280602e81526020016120c1602e913960405160200161082f93929190611e2b565b604051602081830303815290604052905061084981610ce1565b6040516020016108599190611f15565b60405160208183030381529060405291505090565b6000818152602081905260408120546001600160a01b03168061041157604051637e27328960e01b815260048101849052602401610475565b6105138383836001610e41565b6000828152602081905260408120546001600160a01b03908116908316156108e1576108e1818486610f8c565b6001600160a01b0381161561091f576108fe600085600080610e41565b6001600160a01b038116600090815260016020526040902080546000190190555b6001600160a01b03851615610951576001600160a01b0385166000908152600160208190526040909120805490910190555b600084815260208190526040808220805473ffffffffffffffffffffffffffffffffffffffff19166001600160a01b0389811691821790925591518793918516917fddf252ad1be2c89b69c2b068fc378daa952ba7f163c4a11628f55a4df523b3ef91a4949350505050565b6001600160a01b038216610a08576040517f5b08ba180000000000000000000000000000000000000000000000000000000081526001600160a01b0383166004820152602401610475565b6001600160a01b03838116600081815260036020908152604080832094871680845294825291829020805460ff191686151590811790915591519182527f17307eab39ab6107e8899845ad3d59bd9653f200f220920489ca2b5937696c31910160405180910390a3505050565b6001600160a01b0383163b156104f257604051630a85bd0160e11b81526001600160a01b0384169063150b7a0290610ab7903390889087908790600401611f5a565b6020604051808303816000875af1925050508015610af2575060408051601f3d908101601f19168201909252610aef91810190611f96565b60015b610b5b573d808015610b20576040519150601f19603f3d011682016040523d82523d6000602084013e610b25565b606091505b508051600003610b5357604051633250574960e11b81526001600160a01b0385166004820152602401610475565b805181602001fd5b6001600160e01b03198116630a85bd0160e11b14610b9757604051633250574960e11b81526001600160a01b0385166004820152602401610475565b5050505050565b60606000610bab83611009565b600101905060008167ffffffffffffffff811115610bcb57610bcb61133c565b6040519080825280601f01601f191660200182016040528015610bf5576020820181803683370190505b5090508181016020015b600019017f3031323334353637383961626364656600000000000000000000000000000000600a86061a8153600a8504945084610bff57509392505050565b60606104116040518060400160405280600d81526020017f696d6167652f7376672b786d6c00000000000000000000000000000000000000815250836110eb565b60606104116040518060400160405280601081526020017f6170706c69636174696f6e2f6a736f6e00000000000000000000000000000000815250836110eb565b6060610411826001610cdc816001600160a01b0384163b611e02565b611108565b60608151600003610d0057505060408051602081019091526000815290565b60006040518060600160405280604081526020016120816040913990506000600384516002610d2f9190611fb3565b610d399190611fc6565b610d44906004611fe8565b67ffffffffffffffff811115610d5c57610d5c61133c565b6040519080825280601f01601f191660200182016040528015610d86576020820181803683370190505b50905060018201602082018586518701602081018051600082525b82841015610dfc576003840193508351603f8160121c168701518653600186019550603f81600c1c168701518653600186019550603f8160061c168701518653600186019550603f8116870151865350600185019450610da1565b9052505085516003900660018114610e1b5760028114610e2e57610e36565b603d6001830353603d6002830353610e36565b603d60018303535b509195945050505050565b8080610e5557506001600160a01b03821615155b15610f4f576000610e658461086e565b90506001600160a01b03831615801590610e915750826001600160a01b0316816001600160a01b031614155b8015610ec357506001600160a01b0380821660009081526003602090815260408083209387168352929052205460ff16155b15610f05576040517fa9fbf51f0000000000000000000000000000000000000000000000000000000081526001600160a01b0384166004820152602401610475565b8115610f4d5783856001600160a01b0316826001600160a01b03167f8c5be1e5ebec7d5bd14f71427d1e84f3dd0314c0f7b2291e5b200ac8c7c3b92560405160405180910390a45b505b50506000908152600260205260409020805473ffffffffffffffffffffffffffffffffffffffff19166001600160a01b0392909216919091179055565b610f9783838361112b565b610513576001600160a01b038316610fc557604051637e27328960e01b815260048101829052602401610475565b6040517f177e802f0000000000000000000000000000000000000000000000000000000081526001600160a01b038316600482015260248101829052604401610475565b6000807a184f03e93ff9f4daa797ed6e38ed64bf6a1f0100000000000000008310611052577a184f03e93ff9f4daa797ed6e38ed64bf6a1f010000000000000000830492506040015b6d04ee2d6d415b85acef8100000000831061107e576d04ee2d6d415b85acef8100000000830492506020015b662386f26fc10000831061109c57662386f26fc10000830492506010015b6305f5e10083106110b4576305f5e100830492506008015b61271083106110c857612710830492506004015b606483106110da576064830492506002015b600a83106104115760010192915050565b6060826110f783610ce1565b604051602001610677929190611fff565b60408051603f8301601f19168101909152818152818360208301863c9392505050565b60006001600160a01b038316158015906111a95750826001600160a01b0316846001600160a01b0316148061118557506001600160a01b0380851660009081526003602090815260408083209387168352929052205460ff165b806111a957506000828152600260205260409020546001600160a01b038481169116145b949350505050565b6001600160e01b0319811681146111c757600080fd5b50565b6000602082840312156111dc57600080fd5b813561073f816111b1565b60005b838110156112025781810151838201526020016111ea565b50506000910152565b600081518084526112238160208601602086016111e7565b601f01601f19169290920160200192915050565b60208152600061073f602083018461120b565b60006020828403121561125c57600080fd5b5035919050565b80356001600160a01b038116811461127a57600080fd5b919050565b6000806040838503121561129257600080fd5b61129b83611263565b946020939093013593505050565b6000806000606084860312156112be57600080fd5b6112c784611263565b92506112d560208501611263565b9150604084013590509250925092565b6000602082840312156112f757600080fd5b61073f82611263565b6000806040838503121561131357600080fd5b61131c83611263565b91506020830135801515811461133157600080fd5b809150509250929050565b634e487b7160e01b600052604160045260246000fd5b604051601f8201601f1916810167ffffffffffffffff8111828210171561137b5761137b61133c565b604052919050565b600067ffffffffffffffff82111561139d5761139d61133c565b50601f01601f191660200190565b60006113be6113b984611383565b611352565b90508281528383830111156113d257600080fd5b828260208301376000602084830101529392505050565b600080600080608085870312156113ff57600080fd5b61140885611263565b935061141660208601611263565b925060408501359150606085013567ffffffffffffffff81111561143957600080fd5b8501601f8101871361144a57600080fd5b611459878235602084016113ab565b91505092959194509250565b6000806040838503121561147857600080fd5b82359150602083013567ffffffffffffffff81111561149657600080fd5b8301601f810185136114a757600080fd5b6114b6858235602084016113ab565b9150509250929050565b600080604083850312156114d357600080fd5b6114dc83611263565b91506114ea60208401611263565b90509250929050565b600081516115058185602086016111e7565b9290920192915050565b7f3c73766720786d6c6e733d22687474703a2f2f7777772e77332e6f72672f323081527f30302f737667222076696577426f783d2230203020323136302032313630223e60208201527f3c212d2d20494d41474553202d2d3e3c696d61676520687265663d220000000060408201526000875161159381605c850160208c016111e7565b602f60f81b605c9184019182015287516115b481605d840160208c016111e7565b7f2f706f7369746976652f00000000000000000000000000000000000000000000605d929091019182015286516115f2816067840160208b016111e7565b7f2e6a706722206865696768743d2232313630222077696474683d223231363022606792909101918201527f206f7061636974793d2230223e3c616e696d617465206174747269627574654e60878201527f616d653d226f706163697479222066726f6d3d22302220746f3d22312220647560a78201527f723d22302e34732220626567696e3d22706f7369746976652e626567696e222060c78201527f66696c6c3d22667265657a65222f3e3c2f696d6167653e3c696d61676520687260e78201527f65663d2200000000000000000000000000000000000000000000000000000000610107820152611af361172861172261170c6117066116f961010b87018c6114f3565b602f60f81b815260010190565b896114f3565b692f6e656761746976652f60b01b8152600a0190565b866114f3565b7f2e6a706722206865696768743d2232313630222077696474683d22323136302281527f3e3c616e696d617465206174747269627574654e616d653d226f70616369747960208201527f222066726f6d3d22312220746f3d223022206475723d22302e3473222062656760408201527f696e3d22706f7369746976652e626567696e222066696c6c3d22667265657a6560608201527f222f3e3c616e696d617465206174747269627574654e616d653d226f7061636960808201527f7479222066726f6d3d22302220746f3d223122206475723d22302e347322206260a08201527f6567696e3d226e656761746976652e626567696e222066696c6c3d226672656560c08201527f7a65222f3e3c2f696d6167653e3c212d2d20434f4e54524f4c53202d2d3e3c7260e08201527f6563742077696474683d223022206865696768743d2232313630222066696c6c6101008201527f3d227472616e73706172656e74223e3c616e696d6174652061747472696275746101208201527f654e616d653d227769647468222066726f6d3d22323136302220746f3d2230226101408201527f206475723d22302e34732220626567696e3d22636c69636b222066696c6c3d226101608201527f667265657a65222069643d226e6567617469766522202f3e3c616e696d6174656101808201527f206174747269627574654e616d653d227769647468222066726f6d3d223022206101a08201527f746f3d223231363022206475723d22302e34732220626567696e3d22706f73696101c08201527f746976652e626567696e222066696c6c3d22667265657a6522202f3e3c2f72656101e08201527f63743e3c726563742077696474683d223231363022206865696768743d2232316102008201527f3630222066696c6c3d227472616e73706172656e74223e3c616e696d617465206102208201527f6174747269627574654e616d653d227769647468222066726f6d3d22302220746102408201527f6f3d223231363022206475723d22302e34732220626567696e3d226e656761746102608201527f6976652e626567696e222066696c6c3d22667265657a6522202f3e3c616e696d6102808201527f617465206174747269627574654e616d653d227769647468222066726f6d3d226102a08201527f323136302220746f3d223022206475723d22302e34732220626567696e3d22636102c08201527f6c69636b222066696c6c3d22667265657a65222069643d22706f7369746976656102e08201527f22202f3e3c2f726563743e3c2f7376673e0000000000000000000000000000006103008201526103110190565b9998505050505050505050565b7f7b226964223a2000000000000000000000000000000000000000000000000000815260008751611b38816007850160208c016111e7565b7f2c226e616d65223a2022000000000000000000000000000000000000000000006007918401918201528751611b75816011840160208c016111e7565b7f222c226465736372697074696f6e223a20224469676974616c204e6567617469601192909101918201527f76652c204c6174656e742028000000000000000000000000000000000000000060318201528651611bd981603d840160208b016111e7565b7f206f6620383029222c22696d616765223a2022697066733a2f2f000000000000603d92909101918201528551611c17816057840160208a016111e7565b611cec611c77611c71611c48611c42605786880101692f6e656761746976652f60b01b8152600a0190565b8a6114f3565b7f2e6a7067222c22616e696d6174696f6e5f75726c223a20220000000000000000815260180190565b876114f3565b7f222c2261747472696275746573223a205b7b2274726169745f74797065223a2081527f22417274697374222c2276616c7565223a20224a61636b20427574636865722260208201527f7d5d7d0000000000000000000000000000000000000000000000000000000000604082015260430190565b9a9950505050505050505050565b60006020808385031215611d0d57600080fd5b825167ffffffffffffffff80821115611d2557600080fd5b818501915085601f830112611d3957600080fd5b815181811115611d4b57611d4b61133c565b8060051b611d5a858201611352565b9182528381018501918581019089841115611d7457600080fd5b86860192505b83831015611af357825185811115611d925760008081fd5b8601603f81018b13611da45760008081fd5b878101516040611db66113b983611383565b8281528d82848601011115611dcb5760008081fd5b611dda838c83018487016111e7565b85525050509186019190860190611d7a565b634e487b7160e01b600052601160045260246000fd5b8181038181111561041157610411611dec565b634e487b7160e01b600052603260045260246000fd5b7f7b226e616d65223a202200000000000000000000000000000000000000000000815260008451611e6381600a8501602089016111e7565b7f222c226465736372697074696f6e223a20220000000000000000000000000000600a918401918201528451611ea081601c8401602089016111e7565b7f222c22696d616765223a2022697066733a2f2f00000000000000000000000000601c92909101918201528351611ede81602f8401602088016111e7565b7f2f706f7369746976652f312e6a7067227d000000000000000000000000000000602f929091019182015260400195945050505050565b7f646174613a6170706c69636174696f6e2f6a736f6e3b6261736536342c000000815260008251611f4d81601d8501602087016111e7565b91909101601d0192915050565b60006001600160a01b03808716835280861660208401525083604083015260806060830152611f8c608083018461120b565b9695505050505050565b600060208284031215611fa857600080fd5b815161073f816111b1565b8082018082111561041157610411611dec565b600082611fe357634e487b7160e01b600052601260045260246000fd5b500490565b808202811582820484141761041157610411611dec565b7f646174613a0000000000000000000000000000000000000000000000000000008152600083516120378160058501602088016111e7565b7f3b6261736536342c000000000000000000000000000000000000000000000000600591840191820152835161207481600d8401602088016111e7565b01600d0194935050505056fe4142434445464748494a4b4c4d4e4f505152535455565758595a6162636465666768696a6b6c6d6e6f707172737475767778797a303132333435363738392b2f516d4e543870426b746a666851764c4b3759414775624645426e315a31444b444d357a47747975667557694b77533830207375727265616c69737420776f726b73206578706c6f72696e6720746865207370616365206265747765656e207265616c20616e64207265616c697a65642c207072656d696572696e672061742050617269732050686f746f2032303234206f6e207375727265616c69736d27732063656e74656e6e69616c2e204561636820746f6b656e2073657276657320617320616e206f726967696e616c206469676974616c206e656761746976652c206d6174657269616c697a696e672061732053696c7665722047656c6174696e205072696e747320766961205061726973277320686973746f72696320504943544f206c61626f7261746f72792ea264697066735822122097d61755283d3fe402cfd6d18483bd16ab81aa55d2fb1e07734c4a23ea98484964736f6c63430008180033",
          "opcodes": "PUSH1 0x80 PUSH1 0x40 MSTORE CALLVALUE DUP1 ISZERO PUSH3 0x11 JUMPI PUSH1 0x0 DUP1 REVERT JUMPDEST POP PUSH1 0x40 MLOAD PUSH3 0x285B CODESIZE SUB DUP1 PUSH3 0x285B DUP4 CODECOPY DUP2 ADD PUSH1 0x40 DUP2 SWAP1 MSTORE PUSH3 0x34 SWAP2 PUSH3 0x4EB JUMP JUMPDEST PUSH3 0x3F DUP2 PUSH3 0x97 JUMP JUMPDEST PUSH1 0x4 DUP1 SLOAD PUSH1 0x1 PUSH1 0x1 PUSH1 0xA0 SHL SUB NOT AND PUSH1 0x1 PUSH1 0x1 PUSH1 0xA0 SHL SUB SWAP3 SWAP1 SWAP3 AND SWAP2 SWAP1 SWAP2 OR SWAP1 SSTORE PUSH1 0x1 JUMPDEST PUSH1 0x50 DUP2 GT PUSH3 0x8F JUMPI PUSH3 0x79 CALLER DUP3 PUSH1 0x0 PUSH3 0x146 JUMP JUMPDEST POP DUP1 PUSH3 0x86 DUP2 PUSH3 0x5A3 JUMP JUMPDEST SWAP2 POP POP PUSH3 0x62 JUMP JUMPDEST POP POP PUSH3 0x629 JUMP JUMPDEST PUSH1 0x0 DUP1 DUP3 PUSH1 0x40 MLOAD PUSH1 0x20 ADD PUSH3 0xAD SWAP2 SWAP1 PUSH3 0x5CB JUMP JUMPDEST PUSH1 0x40 MLOAD PUSH1 0x20 DUP2 DUP4 SUB SUB DUP2 MSTORE SWAP1 PUSH1 0x40 MSTORE SWAP1 POP PUSH1 0x0 DUP2 PUSH1 0x40 MLOAD PUSH1 0x20 ADD PUSH3 0xD3 SWAP2 SWAP1 PUSH3 0x5F3 JUMP JUMPDEST PUSH1 0x40 MLOAD PUSH1 0x20 DUP2 DUP4 SUB SUB DUP2 MSTORE SWAP1 PUSH1 0x40 MSTORE SWAP1 POP DUP1 MLOAD PUSH1 0x20 DUP3 ADD PUSH1 0x0 CREATE SWAP3 POP PUSH1 0x1 PUSH1 0x1 PUSH1 0xA0 SHL SUB DUP4 AND PUSH3 0x13F JUMPI PUSH1 0x40 MLOAD PUSH3 0x461BCD PUSH1 0xE5 SHL DUP2 MSTORE PUSH1 0x20 PUSH1 0x4 DUP3 ADD MSTORE PUSH1 0x11 PUSH1 0x24 DUP3 ADD MSTORE PUSH17 0x1111541313D65351539517D19052531151 PUSH1 0x7A SHL PUSH1 0x44 DUP3 ADD MSTORE PUSH1 0x64 ADD JUMPDEST PUSH1 0x40 MLOAD DUP1 SWAP2 SUB SWAP1 REVERT JUMPDEST POP POP SWAP2 SWAP1 POP JUMP JUMPDEST PUSH1 0x0 DUP3 DUP2 MSTORE PUSH1 0x20 DUP2 SWAP1 MSTORE PUSH1 0x40 DUP2 KECCAK256 SLOAD PUSH1 0x1 PUSH1 0x1 PUSH1 0xA0 SHL SUB SWAP1 DUP2 AND SWAP1 DUP4 AND ISZERO PUSH3 0x176 JUMPI PUSH3 0x176 DUP2 DUP5 DUP7 PUSH3 0x248 JUMP JUMPDEST PUSH1 0x1 PUSH1 0x1 PUSH1 0xA0 SHL SUB DUP2 AND ISZERO PUSH3 0x1B6 JUMPI PUSH3 0x195 PUSH1 0x0 DUP6 DUP2 DUP1 PUSH3 0x2B7 JUMP JUMPDEST PUSH1 0x1 PUSH1 0x1 PUSH1 0xA0 SHL SUB DUP2 AND PUSH1 0x0 SWAP1 DUP2 MSTORE PUSH1 0x1 PUSH1 0x20 MSTORE PUSH1 0x40 SWAP1 KECCAK256 DUP1 SLOAD PUSH1 0x0 NOT ADD SWAP1 SSTORE JUMPDEST PUSH1 0x1 PUSH1 0x1 PUSH1 0xA0 SHL SUB DUP6 AND ISZERO PUSH3 0x1E9 JUMPI PUSH1 0x1 PUSH1 0x1 PUSH1 0xA0 SHL SUB DUP6 AND PUSH1 0x0 SWAP1 DUP2 MSTORE PUSH1 0x1 PUSH1 0x20 DUP2 SWAP1 MSTORE PUSH1 0x40 SWAP1 SWAP2 KECCAK256 DUP1 SLOAD SWAP1 SWAP2 ADD SWAP1 SSTORE JUMPDEST PUSH1 0x0 DUP5 DUP2 MSTORE PUSH1 0x20 DUP2 SWAP1 MSTORE PUSH1 0x40 DUP1 DUP3 KECCAK256 DUP1 SLOAD PUSH1 0x1 PUSH1 0x1 PUSH1 0xA0 SHL SUB NOT AND PUSH1 0x1 PUSH1 0x1 PUSH1 0xA0 SHL SUB DUP10 DUP2 AND SWAP2 DUP3 OR SWAP1 SWAP3 SSTORE SWAP2 MLOAD DUP8 SWAP4 SWAP2 DUP6 AND SWAP2 PUSH32 0xDDF252AD1BE2C89B69C2B068FC378DAA952BA7F163C4A11628F55A4DF523B3EF SWAP2 LOG4 SWAP5 SWAP4 POP POP POP POP JUMP JUMPDEST PUSH3 0x255 DUP4 DUP4 DUP4 PUSH3 0x3E5 JUMP JUMPDEST PUSH3 0x2B2 JUMPI PUSH1 0x1 PUSH1 0x1 PUSH1 0xA0 SHL SUB DUP4 AND PUSH3 0x286 JUMPI PUSH1 0x40 MLOAD PUSH4 0x7E273289 PUSH1 0xE0 SHL DUP2 MSTORE PUSH1 0x4 DUP2 ADD DUP3 SWAP1 MSTORE PUSH1 0x24 ADD PUSH3 0x136 JUMP JUMPDEST PUSH1 0x40 MLOAD PUSH4 0x177E802F PUSH1 0xE0 SHL DUP2 MSTORE PUSH1 0x1 PUSH1 0x1 PUSH1 0xA0 SHL SUB DUP4 AND PUSH1 0x4 DUP3 ADD MSTORE PUSH1 0x24 DUP2 ADD DUP3 SWAP1 MSTORE PUSH1 0x44 ADD PUSH3 0x136 JUMP JUMPDEST POP POP POP JUMP JUMPDEST DUP1 DUP1 PUSH3 0x2CC JUMPI POP PUSH1 0x1 PUSH1 0x1 PUSH1 0xA0 SHL SUB DUP3 AND ISZERO ISZERO JUMPDEST ISZERO PUSH3 0x3B5 JUMPI PUSH1 0x0 PUSH3 0x2DF DUP5 PUSH3 0x46E JUMP JUMPDEST SWAP1 POP PUSH1 0x1 PUSH1 0x1 PUSH1 0xA0 SHL SUB DUP4 AND ISZERO DUP1 ISZERO SWAP1 PUSH3 0x30C JUMPI POP DUP3 PUSH1 0x1 PUSH1 0x1 PUSH1 0xA0 SHL SUB AND DUP2 PUSH1 0x1 PUSH1 0x1 PUSH1 0xA0 SHL SUB AND EQ ISZERO JUMPDEST DUP1 ISZERO PUSH3 0x33F JUMPI POP PUSH1 0x1 PUSH1 0x1 PUSH1 0xA0 SHL SUB DUP1 DUP3 AND PUSH1 0x0 SWAP1 DUP2 MSTORE PUSH1 0x3 PUSH1 0x20 SWAP1 DUP2 MSTORE PUSH1 0x40 DUP1 DUP4 KECCAK256 SWAP4 DUP8 AND DUP4 MSTORE SWAP3 SWAP1 MSTORE KECCAK256 SLOAD PUSH1 0xFF AND ISZERO JUMPDEST ISZERO PUSH3 0x36A JUMPI PUSH1 0x40 MLOAD PUSH4 0xA9FBF51F PUSH1 0xE0 SHL DUP2 MSTORE PUSH1 0x1 PUSH1 0x1 PUSH1 0xA0 SHL SUB DUP5 AND PUSH1 0x4 DUP3 ADD MSTORE PUSH1 0x24 ADD PUSH3 0x136 JUMP JUMPDEST DUP2 ISZERO PUSH3 0x3B3 JUMPI DUP4 DUP6 PUSH1 0x1 PUSH1 0x1 PUSH1 0xA0 SHL SUB AND DUP3 PUSH1 0x1 PUSH1 0x1 PUSH1 0xA0 SHL SUB AND PUSH32 0x8C5BE1E5EBEC7D5BD14F71427D1E84F3DD0314C0F7B2291E5B200AC8C7C3B925 PUSH1 0x40 MLOAD PUSH1 0x40 MLOAD DUP1 SWAP2 SUB SWAP1 LOG4 JUMPDEST POP JUMPDEST POP POP PUSH1 0x0 SWAP1 DUP2 MSTORE PUSH1 0x2 PUSH1 0x20 MSTORE PUSH1 0x40 SWAP1 KECCAK256 DUP1 SLOAD PUSH1 0x1 PUSH1 0x1 PUSH1 0xA0 SHL SUB NOT AND PUSH1 0x1 PUSH1 0x1 PUSH1 0xA0 SHL SUB SWAP3 SWAP1 SWAP3 AND SWAP2 SWAP1 SWAP2 OR SWAP1 SSTORE JUMP JUMPDEST PUSH1 0x0 PUSH1 0x1 PUSH1 0x1 PUSH1 0xA0 SHL SUB DUP4 AND ISZERO DUP1 ISZERO SWAP1 PUSH3 0x466 JUMPI POP DUP3 PUSH1 0x1 PUSH1 0x1 PUSH1 0xA0 SHL SUB AND DUP5 PUSH1 0x1 PUSH1 0x1 PUSH1 0xA0 SHL SUB AND EQ DUP1 PUSH3 0x441 JUMPI POP PUSH1 0x1 PUSH1 0x1 PUSH1 0xA0 SHL SUB DUP1 DUP6 AND PUSH1 0x0 SWAP1 DUP2 MSTORE PUSH1 0x3 PUSH1 0x20 SWAP1 DUP2 MSTORE PUSH1 0x40 DUP1 DUP4 KECCAK256 SWAP4 DUP8 AND DUP4 MSTORE SWAP3 SWAP1 MSTORE KECCAK256 SLOAD PUSH1 0xFF AND JUMPDEST DUP1 PUSH3 0x466 JUMPI POP PUSH1 0x0 DUP3 DUP2 MSTORE PUSH1 0x2 PUSH1 0x20 MSTORE PUSH1 0x40 SWAP1 KECCAK256 SLOAD PUSH1 0x1 PUSH1 0x1 PUSH1 0xA0 SHL SUB DUP5 DUP2 AND SWAP2 AND EQ JUMPDEST SWAP5 SWAP4 POP POP POP POP JUMP JUMPDEST PUSH1 0x0 DUP2 DUP2 MSTORE PUSH1 0x20 DUP2 SWAP1 MSTORE PUSH1 0x40 DUP2 KECCAK256 SLOAD PUSH1 0x1 PUSH1 0x1 PUSH1 0xA0 SHL SUB AND DUP1 PUSH3 0x4A9 JUMPI PUSH1 0x40 MLOAD PUSH4 0x7E273289 PUSH1 0xE0 SHL DUP2 MSTORE PUSH1 0x4 DUP2 ADD DUP5 SWAP1 MSTORE PUSH1 0x24 ADD PUSH3 0x136 JUMP JUMPDEST SWAP3 SWAP2 POP POP JUMP JUMPDEST PUSH4 0x4E487B71 PUSH1 0xE0 SHL PUSH1 0x0 MSTORE PUSH1 0x41 PUSH1 0x4 MSTORE PUSH1 0x24 PUSH1 0x0 REVERT JUMPDEST PUSH1 0x0 JUMPDEST DUP4 DUP2 LT ISZERO PUSH3 0x4E2 JUMPI DUP2 DUP2 ADD MLOAD DUP4 DUP3 ADD MSTORE PUSH1 0x20 ADD PUSH3 0x4C8 JUMP JUMPDEST POP POP PUSH1 0x0 SWAP2 ADD MSTORE JUMP JUMPDEST PUSH1 0x0 PUSH1 0x20 DUP3 DUP5 SUB SLT ISZERO PUSH3 0x4FE JUMPI PUSH1 0x0 DUP1 REVERT JUMPDEST DUP2 MLOAD PUSH1 0x1 PUSH1 0x1 PUSH1 0x40 SHL SUB DUP1 DUP3 GT ISZERO PUSH3 0x516 JUMPI PUSH1 0x0 DUP1 REVERT JUMPDEST DUP2 DUP5 ADD SWAP2 POP DUP5 PUSH1 0x1F DUP4 ADD SLT PUSH3 0x52B JUMPI PUSH1 0x0 DUP1 REVERT JUMPDEST DUP2 MLOAD DUP2 DUP2 GT ISZERO PUSH3 0x540 JUMPI PUSH3 0x540 PUSH3 0x4AF JUMP JUMPDEST PUSH1 0x40 MLOAD PUSH1 0x1F DUP3 ADD PUSH1 0x1F NOT SWAP1 DUP2 AND PUSH1 0x3F ADD AND DUP2 ADD SWAP1 DUP4 DUP3 GT DUP2 DUP4 LT OR ISZERO PUSH3 0x56B JUMPI PUSH3 0x56B PUSH3 0x4AF JUMP JUMPDEST DUP2 PUSH1 0x40 MSTORE DUP3 DUP2 MSTORE DUP8 PUSH1 0x20 DUP5 DUP8 ADD ADD GT ISZERO PUSH3 0x585 JUMPI PUSH1 0x0 DUP1 REVERT JUMPDEST PUSH3 0x598 DUP4 PUSH1 0x20 DUP4 ADD PUSH1 0x20 DUP9 ADD PUSH3 0x4C5 JUMP JUMPDEST SWAP8 SWAP7 POP POP POP POP POP POP POP JUMP JUMPDEST PUSH1 0x0 PUSH1 0x1 DUP3 ADD PUSH3 0x5C4 JUMPI PUSH4 0x4E487B71 PUSH1 0xE0 SHL PUSH1 0x0 MSTORE PUSH1 0x11 PUSH1 0x4 MSTORE PUSH1 0x24 PUSH1 0x0 REVERT JUMPDEST POP PUSH1 0x1 ADD SWAP1 JUMP JUMPDEST PUSH1 0x0 DUP2 MSTORE PUSH1 0x0 DUP3 MLOAD PUSH3 0x5E6 DUP2 PUSH1 0x1 DUP6 ADD PUSH1 0x20 DUP8 ADD PUSH3 0x4C5 JUMP JUMPDEST SWAP2 SWAP1 SWAP2 ADD PUSH1 0x1 ADD SWAP3 SWAP2 POP POP JUMP JUMPDEST PUSH11 0x600B5981380380925939F3 PUSH1 0xA8 SHL DUP2 MSTORE DUP2 MLOAD PUSH1 0x0 SWAP1 PUSH3 0x61C DUP2 PUSH1 0xB DUP6 ADD PUSH1 0x20 DUP8 ADD PUSH3 0x4C5 JUMP JUMPDEST SWAP2 SWAP1 SWAP2 ADD PUSH1 0xB ADD SWAP3 SWAP2 POP POP JUMP JUMPDEST PUSH2 0x2222 DUP1 PUSH3 0x639 PUSH1 0x0 CODECOPY PUSH1 0x0 RETURN INVALID PUSH1 0x80 PUSH1 0x40 MSTORE CALLVALUE DUP1 ISZERO PUSH2 0x10 JUMPI PUSH1 0x0 DUP1 REVERT JUMPDEST POP PUSH1 0x4 CALLDATASIZE LT PUSH2 0x16C JUMPI PUSH1 0x0 CALLDATALOAD PUSH1 0xE0 SHR DUP1 PUSH4 0x7284E416 GT PUSH2 0xCD JUMPI DUP1 PUSH4 0xC87B56DD GT PUSH2 0x81 JUMPI DUP1 PUSH4 0xE725F877 GT PUSH2 0x66 JUMPI DUP1 PUSH4 0xE725F877 EQ PUSH2 0x323 JUMPI DUP1 PUSH4 0xE8A3D485 EQ PUSH2 0x336 JUMPI DUP1 PUSH4 0xE985E9C5 EQ PUSH2 0x33E JUMPI PUSH1 0x0 DUP1 REVERT JUMPDEST DUP1 PUSH4 0xC87B56DD EQ PUSH2 0x308 JUMPI DUP1 PUSH4 0xD97AA977 EQ PUSH2 0x31B JUMPI PUSH1 0x0 DUP1 REVERT JUMPDEST DUP1 PUSH4 0xA22CB465 GT PUSH2 0xB2 JUMPI DUP1 PUSH4 0xA22CB465 EQ PUSH2 0x2CF JUMPI DUP1 PUSH4 0xB88D4FDE EQ PUSH2 0x2E2 JUMPI DUP1 PUSH4 0xC02137D1 EQ PUSH2 0x2F5 JUMPI PUSH1 0x0 DUP1 REVERT JUMPDEST DUP1 PUSH4 0x7284E416 EQ PUSH2 0x28B JUMPI DUP1 PUSH4 0x95D89B41 EQ PUSH2 0x293 JUMPI PUSH1 0x0 DUP1 REVERT JUMPDEST DUP1 PUSH4 0x42842E0E GT PUSH2 0x124 JUMPI DUP1 PUSH4 0x6344F311 GT PUSH2 0x109 JUMPI DUP1 PUSH4 0x6344F311 EQ PUSH2 0x244 JUMPI DUP1 PUSH4 0x6352211E EQ PUSH2 0x257 JUMPI DUP1 PUSH4 0x70A08231 EQ PUSH2 0x26A JUMPI PUSH1 0x0 DUP1 REVERT JUMPDEST DUP1 PUSH4 0x42842E0E EQ PUSH2 0x21E JUMPI DUP1 PUSH4 0x42966C68 EQ PUSH2 0x231 JUMPI PUSH1 0x0 DUP1 REVERT JUMPDEST DUP1 PUSH4 0x81812FC GT PUSH2 0x155 JUMPI DUP1 PUSH4 0x81812FC EQ PUSH2 0x1CB JUMPI DUP1 PUSH4 0x95EA7B3 EQ PUSH2 0x1F6 JUMPI DUP1 PUSH4 0x23B872DD EQ PUSH2 0x20B JUMPI PUSH1 0x0 DUP1 REVERT JUMPDEST DUP1 PUSH4 0x1FFC9A7 EQ PUSH2 0x171 JUMPI DUP1 PUSH4 0x6FDDE03 EQ PUSH2 0x199 JUMPI JUMPDEST PUSH1 0x0 DUP1 REVERT JUMPDEST PUSH2 0x184 PUSH2 0x17F CALLDATASIZE PUSH1 0x4 PUSH2 0x11CA JUMP JUMPDEST PUSH2 0x37A JUMP JUMPDEST PUSH1 0x40 MLOAD SWAP1 ISZERO ISZERO DUP2 MSTORE PUSH1 0x20 ADD JUMPDEST PUSH1 0x40 MLOAD DUP1 SWAP2 SUB SWAP1 RETURN JUMPDEST PUSH2 0x1BE PUSH1 0x40 MLOAD DUP1 PUSH1 0x40 ADD PUSH1 0x40 MSTORE DUP1 PUSH1 0x6 DUP2 MSTORE PUSH1 0x20 ADD PUSH6 0x13185D195B9D PUSH1 0xD2 SHL DUP2 MSTORE POP DUP2 JUMP JUMPDEST PUSH1 0x40 MLOAD PUSH2 0x190 SWAP2 SWAP1 PUSH2 0x1237 JUMP JUMPDEST PUSH2 0x1DE PUSH2 0x1D9 CALLDATASIZE PUSH1 0x4 PUSH2 0x124A JUMP JUMPDEST PUSH2 0x417 JUMP JUMPDEST PUSH1 0x40 MLOAD PUSH1 0x1 PUSH1 0x1 PUSH1 0xA0 SHL SUB SWAP1 SWAP2 AND DUP2 MSTORE PUSH1 0x20 ADD PUSH2 0x190 JUMP JUMPDEST PUSH2 0x209 PUSH2 0x204 CALLDATASIZE PUSH1 0x4 PUSH2 0x127F JUMP JUMPDEST PUSH2 0x440 JUMP JUMPDEST STOP JUMPDEST PUSH2 0x209 PUSH2 0x219 CALLDATASIZE PUSH1 0x4 PUSH2 0x12A9 JUMP JUMPDEST PUSH2 0x44F JUMP JUMPDEST PUSH2 0x209 PUSH2 0x22C CALLDATASIZE PUSH1 0x4 PUSH2 0x12A9 JUMP JUMPDEST PUSH2 0x4F8 JUMP JUMPDEST PUSH2 0x209 PUSH2 0x23F CALLDATASIZE PUSH1 0x4 PUSH2 0x124A JUMP JUMPDEST PUSH2 0x518 JUMP JUMPDEST PUSH2 0x1BE PUSH2 0x252 CALLDATASIZE PUSH1 0x4 PUSH2 0x124A JUMP JUMPDEST PUSH2 0x524 JUMP JUMPDEST PUSH2 0x1DE PUSH2 0x265 CALLDATASIZE PUSH1 0x4 PUSH2 0x124A JUMP JUMPDEST PUSH2 0x565 JUMP JUMPDEST PUSH2 0x27D PUSH2 0x278 CALLDATASIZE PUSH1 0x4 PUSH2 0x12E5 JUMP JUMPDEST PUSH2 0x570 JUMP JUMPDEST PUSH1 0x40 MLOAD SWAP1 DUP2 MSTORE PUSH1 0x20 ADD PUSH2 0x190 JUMP JUMPDEST PUSH2 0x1BE PUSH2 0x5D1 JUMP JUMPDEST PUSH2 0x1BE PUSH1 0x40 MLOAD DUP1 PUSH1 0x40 ADD PUSH1 0x40 MSTORE DUP1 PUSH1 0x6 DUP2 MSTORE PUSH1 0x20 ADD PUSH32 0x4C4154454E540000000000000000000000000000000000000000000000000000 DUP2 MSTORE POP DUP2 JUMP JUMPDEST PUSH2 0x209 PUSH2 0x2DD CALLDATASIZE PUSH1 0x4 PUSH2 0x1300 JUMP JUMPDEST PUSH2 0x5EE JUMP JUMPDEST PUSH2 0x209 PUSH2 0x2F0 CALLDATASIZE PUSH1 0x4 PUSH2 0x13E9 JUMP JUMPDEST PUSH2 0x5F9 JUMP JUMPDEST PUSH2 0x1BE PUSH2 0x303 CALLDATASIZE PUSH1 0x4 PUSH2 0x1465 JUMP JUMPDEST PUSH2 0x610 JUMP JUMPDEST PUSH2 0x1BE PUSH2 0x316 CALLDATASIZE PUSH1 0x4 PUSH2 0x124A JUMP JUMPDEST PUSH2 0x68E JUMP JUMPDEST PUSH2 0x1BE PUSH2 0x746 JUMP JUMPDEST PUSH2 0x1BE PUSH2 0x331 CALLDATASIZE PUSH1 0x4 PUSH2 0x124A JUMP JUMPDEST PUSH2 0x762 JUMP JUMPDEST PUSH2 0x1BE PUSH2 0x7C7 JUMP JUMPDEST PUSH2 0x184 PUSH2 0x34C CALLDATASIZE PUSH1 0x4 PUSH2 0x14C0 JUMP JUMPDEST PUSH1 0x1 PUSH1 0x1 PUSH1 0xA0 SHL SUB SWAP2 DUP3 AND PUSH1 0x0 SWAP1 DUP2 MSTORE PUSH1 0x3 PUSH1 0x20 SWAP1 DUP2 MSTORE PUSH1 0x40 DUP1 DUP4 KECCAK256 SWAP4 SWAP1 SWAP5 AND DUP3 MSTORE SWAP2 SWAP1 SWAP2 MSTORE KECCAK256 SLOAD PUSH1 0xFF AND SWAP1 JUMP JUMPDEST PUSH1 0x0 PUSH1 0x1 PUSH1 0x1 PUSH1 0xE0 SHL SUB NOT DUP3 AND PUSH32 0x80AC58CD00000000000000000000000000000000000000000000000000000000 EQ DUP1 PUSH2 0x3DD JUMPI POP PUSH1 0x1 PUSH1 0x1 PUSH1 0xE0 SHL SUB NOT DUP3 AND PUSH32 0x5B5E139F00000000000000000000000000000000000000000000000000000000 EQ JUMPDEST DUP1 PUSH2 0x411 JUMPI POP PUSH32 0x1FFC9A700000000000000000000000000000000000000000000000000000000 PUSH1 0x1 PUSH1 0x1 PUSH1 0xE0 SHL SUB NOT DUP4 AND EQ JUMPDEST SWAP3 SWAP2 POP POP JUMP JUMPDEST PUSH1 0x0 PUSH2 0x422 DUP3 PUSH2 0x86E JUMP JUMPDEST POP PUSH1 0x0 DUP3 DUP2 MSTORE PUSH1 0x2 PUSH1 0x20 MSTORE PUSH1 0x40 SWAP1 KECCAK256 SLOAD PUSH1 0x1 PUSH1 0x1 PUSH1 0xA0 SHL SUB AND PUSH2 0x411 JUMP JUMPDEST PUSH2 0x44B DUP3 DUP3 CALLER PUSH2 0x8A7 JUMP JUMPDEST POP POP JUMP JUMPDEST PUSH1 0x1 PUSH1 0x1 PUSH1 0xA0 SHL SUB DUP3 AND PUSH2 0x47E JUMPI PUSH1 0x40 MLOAD PUSH4 0x32505749 PUSH1 0xE1 SHL DUP2 MSTORE PUSH1 0x0 PUSH1 0x4 DUP3 ADD MSTORE PUSH1 0x24 ADD JUMPDEST PUSH1 0x40 MLOAD DUP1 SWAP2 SUB SWAP1 REVERT JUMPDEST PUSH1 0x0 PUSH2 0x48B DUP4 DUP4 CALLER PUSH2 0x8B4 JUMP JUMPDEST SWAP1 POP DUP4 PUSH1 0x1 PUSH1 0x1 PUSH1 0xA0 SHL SUB AND DUP2 PUSH1 0x1 PUSH1 0x1 PUSH1 0xA0 SHL SUB AND EQ PUSH2 0x4F2 JUMPI PUSH1 0x40 MLOAD PUSH32 0x64283D7B00000000000000000000000000000000000000000000000000000000 DUP2 MSTORE PUSH1 0x1 PUSH1 0x1 PUSH1 0xA0 SHL SUB DUP1 DUP7 AND PUSH1 0x4 DUP4 ADD MSTORE PUSH1 0x24 DUP3 ADD DUP5 SWAP1 MSTORE DUP3 AND PUSH1 0x44 DUP3 ADD MSTORE PUSH1 0x64 ADD PUSH2 0x475 JUMP JUMPDEST POP POP POP POP JUMP JUMPDEST PUSH2 0x513 DUP4 DUP4 DUP4 PUSH1 0x40 MLOAD DUP1 PUSH1 0x20 ADD PUSH1 0x40 MSTORE DUP1 PUSH1 0x0 DUP2 MSTORE POP PUSH2 0x5F9 JUMP JUMPDEST POP POP POP JUMP JUMPDEST PUSH2 0x44B PUSH1 0x0 DUP3 CALLER PUSH2 0x8B4 JUMP JUMPDEST PUSH1 0x60 PUSH2 0x411 DUP3 PUSH1 0x40 MLOAD DUP1 PUSH1 0x40 ADD PUSH1 0x40 MSTORE DUP1 PUSH1 0x18 DUP2 MSTORE PUSH1 0x20 ADD PUSH32 0x68747470733A2F2F697066732E76762E78797A2F697066730000000000000000 DUP2 MSTORE POP PUSH2 0x610 JUMP JUMPDEST PUSH1 0x0 PUSH2 0x411 DUP3 PUSH2 0x86E JUMP JUMPDEST PUSH1 0x0 PUSH1 0x1 PUSH1 0x1 PUSH1 0xA0 SHL SUB DUP3 AND PUSH2 0x5B5 JUMPI PUSH1 0x40 MLOAD PUSH32 0x89C62B6400000000000000000000000000000000000000000000000000000000 DUP2 MSTORE PUSH1 0x0 PUSH1 0x4 DUP3 ADD MSTORE PUSH1 0x24 ADD PUSH2 0x475 JUMP JUMPDEST POP PUSH1 0x1 PUSH1 0x1 PUSH1 0xA0 SHL SUB AND PUSH1 0x0 SWAP1 DUP2 MSTORE PUSH1 0x1 PUSH1 0x20 MSTORE PUSH1 0x40 SWAP1 KECCAK256 SLOAD SWAP1 JUMP JUMPDEST PUSH1 0x40 MLOAD DUP1 PUSH2 0x120 ADD PUSH1 0x40 MSTORE DUP1 PUSH1 0xFE DUP2 MSTORE PUSH1 0x20 ADD PUSH2 0x20EF PUSH1 0xFE SWAP2 CODECOPY DUP2 JUMP JUMPDEST PUSH2 0x44B CALLER DUP4 DUP4 PUSH2 0x9BD JUMP JUMPDEST PUSH2 0x604 DUP5 DUP5 DUP5 PUSH2 0x44F JUMP JUMPDEST PUSH2 0x4F2 DUP5 DUP5 DUP5 DUP5 PUSH2 0xA75 JUMP JUMPDEST PUSH1 0x60 PUSH2 0x61B DUP4 PUSH2 0x86E JUMP JUMPDEST POP DUP2 PUSH1 0x40 MLOAD DUP1 PUSH1 0x60 ADD PUSH1 0x40 MSTORE DUP1 PUSH1 0x2E DUP2 MSTORE PUSH1 0x20 ADD PUSH2 0x20C1 PUSH1 0x2E SWAP2 CODECOPY PUSH2 0x63F DUP6 PUSH2 0xB9E JUMP JUMPDEST DUP5 PUSH1 0x40 MLOAD DUP1 PUSH1 0x60 ADD PUSH1 0x40 MSTORE DUP1 PUSH1 0x2E DUP2 MSTORE PUSH1 0x20 ADD PUSH2 0x20C1 PUSH1 0x2E SWAP2 CODECOPY PUSH2 0x662 DUP9 PUSH2 0xB9E JUMP JUMPDEST PUSH1 0x40 MLOAD PUSH1 0x20 ADD PUSH2 0x677 SWAP7 SWAP6 SWAP5 SWAP4 SWAP3 SWAP2 SWAP1 PUSH2 0x150F JUMP JUMPDEST PUSH1 0x40 MLOAD PUSH1 0x20 DUP2 DUP4 SUB SUB DUP2 MSTORE SWAP1 PUSH1 0x40 MSTORE SWAP1 POP SWAP3 SWAP2 POP POP JUMP JUMPDEST PUSH1 0x60 PUSH2 0x699 DUP3 PUSH2 0x86E JUMP JUMPDEST POP PUSH1 0x0 PUSH2 0x6A5 DUP4 PUSH2 0xB9E JUMP JUMPDEST SWAP1 POP PUSH2 0x73F DUP2 PUSH2 0x6B4 DUP6 PUSH2 0x762 JUMP JUMPDEST DUP4 PUSH1 0x40 MLOAD DUP1 PUSH1 0x60 ADD PUSH1 0x40 MSTORE DUP1 PUSH1 0x2E DUP2 MSTORE PUSH1 0x20 ADD PUSH2 0x20C1 PUSH1 0x2E SWAP2 CODECOPY DUP6 PUSH2 0x716 PUSH2 0x711 DUP11 PUSH1 0x40 MLOAD DUP1 PUSH1 0x40 ADD PUSH1 0x40 MSTORE DUP1 PUSH1 0x18 DUP2 MSTORE PUSH1 0x20 ADD PUSH32 0x68747470733A2F2F697066732E76762E78797A2F697066730000000000000000 DUP2 MSTORE POP PUSH2 0x610 JUMP JUMPDEST PUSH2 0xC3E JUMP JUMPDEST PUSH1 0x40 MLOAD PUSH1 0x20 ADD PUSH2 0x72B SWAP7 SWAP6 SWAP5 SWAP4 SWAP3 SWAP2 SWAP1 PUSH2 0x1B00 JUMP JUMPDEST PUSH1 0x40 MLOAD PUSH1 0x20 DUP2 DUP4 SUB SUB DUP2 MSTORE SWAP1 PUSH1 0x40 MSTORE PUSH2 0xC7F JUMP JUMPDEST SWAP4 SWAP3 POP POP POP JUMP JUMPDEST PUSH1 0x40 MLOAD DUP1 PUSH1 0x60 ADD PUSH1 0x40 MSTORE DUP1 PUSH1 0x2E DUP2 MSTORE PUSH1 0x20 ADD PUSH2 0x20C1 PUSH1 0x2E SWAP2 CODECOPY DUP2 JUMP JUMPDEST PUSH1 0x60 PUSH2 0x76D DUP3 PUSH2 0x86E JUMP JUMPDEST POP PUSH1 0x4 SLOAD PUSH1 0x0 SWAP1 PUSH2 0x786 SWAP1 PUSH1 0x1 PUSH1 0x1 PUSH1 0xA0 SHL SUB AND PUSH2 0xCC0 JUMP JUMPDEST DUP1 PUSH1 0x20 ADD SWAP1 MLOAD DUP2 ADD SWAP1 PUSH2 0x799 SWAP2 SWAP1 PUSH2 0x1CFA JUMP JUMPDEST SWAP1 POP DUP1 PUSH2 0x7A7 PUSH1 0x1 DUP6 PUSH2 0x1E02 JUMP JUMPDEST DUP2 MLOAD DUP2 LT PUSH2 0x7B7 JUMPI PUSH2 0x7B7 PUSH2 0x1E15 JUMP JUMPDEST PUSH1 0x20 MUL PUSH1 0x20 ADD ADD MLOAD SWAP2 POP POP SWAP2 SWAP1 POP JUMP JUMPDEST PUSH1 0x60 PUSH1 0x0 PUSH1 0x40 MLOAD DUP1 PUSH1 0x40 ADD PUSH1 0x40 MSTORE DUP1 PUSH1 0x6 DUP2 MSTORE PUSH1 0x20 ADD PUSH6 0x13185D195B9D PUSH1 0xD2 SHL DUP2 MSTORE POP PUSH1 0x40 MLOAD DUP1 PUSH2 0x120 ADD PUSH1 0x40 MSTORE DUP1 PUSH1 0xFE DUP2 MSTORE PUSH1 0x20 ADD PUSH2 0x20EF PUSH1 0xFE SWAP2 CODECOPY PUSH1 0x40 MLOAD DUP1 PUSH1 0x60 ADD PUSH1 0x40 MSTORE DUP1 PUSH1 0x2E DUP2 MSTORE PUSH1 0x20 ADD PUSH2 0x20C1 PUSH1 0x2E SWAP2 CODECOPY PUSH1 0x40 MLOAD PUSH1 0x20 ADD PUSH2 0x82F SWAP4 SWAP3 SWAP2 SWAP1 PUSH2 0x1E2B JUMP JUMPDEST PUSH1 0x40 MLOAD PUSH1 0x20 DUP2 DUP4 SUB SUB DUP2 MSTORE SWAP1 PUSH1 0x40 MSTORE SWAP1 POP PUSH2 0x849 DUP2 PUSH2 0xCE1 JUMP JUMPDEST PUSH1 0x40 MLOAD PUSH1 0x20 ADD PUSH2 0x859 SWAP2 SWAP1 PUSH2 0x1F15 JUMP JUMPDEST PUSH1 0x40 MLOAD PUSH1 0x20 DUP2 DUP4 SUB SUB DUP2 MSTORE SWAP1 PUSH1 0x40 MSTORE SWAP2 POP POP SWAP1 JUMP JUMPDEST PUSH1 0x0 DUP2 DUP2 MSTORE PUSH1 0x20 DUP2 SWAP1 MSTORE PUSH1 0x40 DUP2 KECCAK256 SLOAD PUSH1 0x1 PUSH1 0x1 PUSH1 0xA0 SHL SUB AND DUP1 PUSH2 0x411 JUMPI PUSH1 0x40 MLOAD PUSH4 0x7E273289 PUSH1 0xE0 SHL DUP2 MSTORE PUSH1 0x4 DUP2 ADD DUP5 SWAP1 MSTORE PUSH1 0x24 ADD PUSH2 0x475 JUMP JUMPDEST PUSH2 0x513 DUP4 DUP4 DUP4 PUSH1 0x1 PUSH2 0xE41 JUMP JUMPDEST PUSH1 0x0 DUP3 DUP2 MSTORE PUSH1 0x20 DUP2 SWAP1 MSTORE PUSH1 0x40 DUP2 KECCAK256 SLOAD PUSH1 0x1 PUSH1 0x1 PUSH1 0xA0 SHL SUB SWAP1 DUP2 AND SWAP1 DUP4 AND ISZERO PUSH2 0x8E1 JUMPI PUSH2 0x8E1 DUP2 DUP5 DUP7 PUSH2 0xF8C JUMP JUMPDEST PUSH1 0x1 PUSH1 0x1 PUSH1 0xA0 SHL SUB DUP2 AND ISZERO PUSH2 0x91F JUMPI PUSH2 0x8FE PUSH1 0x0 DUP6 PUSH1 0x0 DUP1 PUSH2 0xE41 JUMP JUMPDEST PUSH1 0x1 PUSH1 0x1 PUSH1 0xA0 SHL SUB DUP2 AND PUSH1 0x0 SWAP1 DUP2 MSTORE PUSH1 0x1 PUSH1 0x20 MSTORE PUSH1 0x40 SWAP1 KECCAK256 DUP1 SLOAD PUSH1 0x0 NOT ADD SWAP1 SSTORE JUMPDEST PUSH1 0x1 PUSH1 0x1 PUSH1 0xA0 SHL SUB DUP6 AND ISZERO PUSH2 0x951 JUMPI PUSH1 0x1 PUSH1 0x1 PUSH1 0xA0 SHL SUB DUP6 AND PUSH1 0x0 SWAP1 DUP2 MSTORE PUSH1 0x1 PUSH1 0x20 DUP2 SWAP1 MSTORE PUSH1 0x40 SWAP1 SWAP2 KECCAK256 DUP1 SLOAD SWAP1 SWAP2 ADD SWAP1 SSTORE JUMPDEST PUSH1 0x0 DUP5 DUP2 MSTORE PUSH1 0x20 DUP2 SWAP1 MSTORE PUSH1 0x40 DUP1 DUP3 KECCAK256 DUP1 SLOAD PUSH20 0xFFFFFFFFFFFFFFFFFFFFFFFFFFFFFFFFFFFFFFFF NOT AND PUSH1 0x1 PUSH1 0x1 PUSH1 0xA0 SHL SUB DUP10 DUP2 AND SWAP2 DUP3 OR SWAP1 SWAP3 SSTORE SWAP2 MLOAD DUP8 SWAP4 SWAP2 DUP6 AND SWAP2 PUSH32 0xDDF252AD1BE2C89B69C2B068FC378DAA952BA7F163C4A11628F55A4DF523B3EF SWAP2 LOG4 SWAP5 SWAP4 POP POP POP POP JUMP JUMPDEST PUSH1 0x1 PUSH1 0x1 PUSH1 0xA0 SHL SUB DUP3 AND PUSH2 0xA08 JUMPI PUSH1 0x40 MLOAD PUSH32 0x5B08BA1800000000000000000000000000000000000000000000000000000000 DUP2 MSTORE PUSH1 0x1 PUSH1 0x1 PUSH1 0xA0 SHL SUB DUP4 AND PUSH1 0x4 DUP3 ADD MSTORE PUSH1 0x24 ADD PUSH2 0x475 JUMP JUMPDEST PUSH1 0x1 PUSH1 0x1 PUSH1 0xA0 SHL SUB DUP4 DUP2 AND PUSH1 0x0 DUP2 DUP2 MSTORE PUSH1 0x3 PUSH1 0x20 SWAP1 DUP2 MSTORE PUSH1 0x40 DUP1 DUP4 KECCAK256 SWAP5 DUP8 AND DUP1 DUP5 MSTORE SWAP5 DUP3 MSTORE SWAP2 DUP3 SWAP1 KECCAK256 DUP1 SLOAD PUSH1 0xFF NOT AND DUP7 ISZERO ISZERO SWAP1 DUP2 OR SWAP1 SWAP2 SSTORE SWAP2 MLOAD SWAP2 DUP3 MSTORE PUSH32 0x17307EAB39AB6107E8899845AD3D59BD9653F200F220920489CA2B5937696C31 SWAP2 ADD PUSH1 0x40 MLOAD DUP1 SWAP2 SUB SWAP1 LOG3 POP POP POP JUMP JUMPDEST PUSH1 0x1 PUSH1 0x1 PUSH1 0xA0 SHL SUB DUP4 AND EXTCODESIZE ISZERO PUSH2 0x4F2 JUMPI PUSH1 0x40 MLOAD PUSH4 0xA85BD01 PUSH1 0xE1 SHL DUP2 MSTORE PUSH1 0x1 PUSH1 0x1 PUSH1 0xA0 SHL SUB DUP5 AND SWAP1 PUSH4 0x150B7A02 SWAP1 PUSH2 0xAB7 SWAP1 CALLER SWAP1 DUP9 SWAP1 DUP8 SWAP1 DUP8 SWAP1 PUSH1 0x4 ADD PUSH2 0x1F5A JUMP JUMPDEST PUSH1 0x20 PUSH1 0x40 MLOAD DUP1 DUP4 SUB DUP2 PUSH1 0x0 DUP8 GAS CALL SWAP3 POP POP POP DUP1 ISZERO PUSH2 0xAF2 JUMPI POP PUSH1 0x40 DUP1 MLOAD PUSH1 0x1F RETURNDATASIZE SWAP1 DUP2 ADD PUSH1 0x1F NOT AND DUP3 ADD SWAP1 SWAP3 MSTORE PUSH2 0xAEF SWAP2 DUP2 ADD SWAP1 PUSH2 0x1F96 JUMP JUMPDEST PUSH1 0x1 JUMPDEST PUSH2 0xB5B JUMPI RETURNDATASIZE DUP1 DUP1 ISZERO PUSH2 0xB20 JUMPI PUSH1 0x40 MLOAD SWAP2 POP PUSH1 0x1F NOT PUSH1 0x3F RETURNDATASIZE ADD AND DUP3 ADD PUSH1 0x40 MSTORE RETURNDATASIZE DUP3 MSTORE RETURNDATASIZE PUSH1 0x0 PUSH1 0x20 DUP5 ADD RETURNDATACOPY PUSH2 0xB25 JUMP JUMPDEST PUSH1 0x60 SWAP2 POP JUMPDEST POP DUP1 MLOAD PUSH1 0x0 SUB PUSH2 0xB53 JUMPI PUSH1 0x40 MLOAD PUSH4 0x32505749 PUSH1 0xE1 SHL DUP2 MSTORE PUSH1 0x1 PUSH1 0x1 PUSH1 0xA0 SHL SUB DUP6 AND PUSH1 0x4 DUP3 ADD MSTORE PUSH1 0x24 ADD PUSH2 0x475 JUMP JUMPDEST DUP1 MLOAD DUP2 PUSH1 0x20 ADD REVERT JUMPDEST PUSH1 0x1 PUSH1 0x1 PUSH1 0xE0 SHL SUB NOT DUP2 AND PUSH4 0xA85BD01 PUSH1 0xE1 SHL EQ PUSH2 0xB97 JUMPI PUSH1 0x40 MLOAD PUSH4 0x32505749 PUSH1 0xE1 SHL DUP2 MSTORE PUSH1 0x1 PUSH1 0x1 PUSH1 0xA0 SHL SUB DUP6 AND PUSH1 0x4 DUP3 ADD MSTORE PUSH1 0x24 ADD PUSH2 0x475 JUMP JUMPDEST POP POP POP POP POP JUMP JUMPDEST PUSH1 0x60 PUSH1 0x0 PUSH2 0xBAB DUP4 PUSH2 0x1009 JUMP JUMPDEST PUSH1 0x1 ADD SWAP1 POP PUSH1 0x0 DUP2 PUSH8 0xFFFFFFFFFFFFFFFF DUP2 GT ISZERO PUSH2 0xBCB JUMPI PUSH2 0xBCB PUSH2 0x133C JUMP JUMPDEST PUSH1 0x40 MLOAD SWAP1 DUP1 DUP3 MSTORE DUP1 PUSH1 0x1F ADD PUSH1 0x1F NOT AND PUSH1 0x20 ADD DUP3 ADD PUSH1 0x40 MSTORE DUP1 ISZERO PUSH2 0xBF5 JUMPI PUSH1 0x20 DUP3 ADD DUP2 DUP1 CALLDATASIZE DUP4 CALLDATACOPY ADD SWAP1 POP JUMPDEST POP SWAP1 POP DUP2 DUP2 ADD PUSH1 0x20 ADD JUMPDEST PUSH1 0x0 NOT ADD PUSH32 0x3031323334353637383961626364656600000000000000000000000000000000 PUSH1 0xA DUP7 MOD BYTE DUP2 MSTORE8 PUSH1 0xA DUP6 DIV SWAP5 POP DUP5 PUSH2 0xBFF JUMPI POP SWAP4 SWAP3 POP POP POP JUMP JUMPDEST PUSH1 0x60 PUSH2 0x411 PUSH1 0x40 MLOAD DUP1 PUSH1 0x40 ADD PUSH1 0x40 MSTORE DUP1 PUSH1 0xD DUP2 MSTORE PUSH1 0x20 ADD PUSH32 0x696D6167652F7376672B786D6C00000000000000000000000000000000000000 DUP2 MSTORE POP DUP4 PUSH2 0x10EB JUMP JUMPDEST PUSH1 0x60 PUSH2 0x411 PUSH1 0x40 MLOAD DUP1 PUSH1 0x40 ADD PUSH1 0x40 MSTORE DUP1 PUSH1 0x10 DUP2 MSTORE PUSH1 0x20 ADD PUSH32 0x6170706C69636174696F6E2F6A736F6E00000000000000000000000000000000 DUP2 MSTORE POP DUP4 PUSH2 0x10EB JUMP JUMPDEST PUSH1 0x60 PUSH2 0x411 DUP3 PUSH1 0x1 PUSH2 0xCDC DUP2 PUSH1 0x1 PUSH1 0x1 PUSH1 0xA0 SHL SUB DUP5 AND EXTCODESIZE PUSH2 0x1E02 JUMP JUMPDEST PUSH2 0x1108 JUMP JUMPDEST PUSH1 0x60 DUP2 MLOAD PUSH1 0x0 SUB PUSH2 0xD00 JUMPI POP POP PUSH1 0x40 DUP1 MLOAD PUSH1 0x20 DUP2 ADD SWAP1 SWAP2 MSTORE PUSH1 0x0 DUP2 MSTORE SWAP1 JUMP JUMPDEST PUSH1 0x0 PUSH1 0x40 MLOAD DUP1 PUSH1 0x60 ADD PUSH1 0x40 MSTORE DUP1 PUSH1 0x40 DUP2 MSTORE PUSH1 0x20 ADD PUSH2 0x2081 PUSH1 0x40 SWAP2 CODECOPY SWAP1 POP PUSH1 0x0 PUSH1 0x3 DUP5 MLOAD PUSH1 0x2 PUSH2 0xD2F SWAP2 SWAP1 PUSH2 0x1FB3 JUMP JUMPDEST PUSH2 0xD39 SWAP2 SWAP1 PUSH2 0x1FC6 JUMP JUMPDEST PUSH2 0xD44 SWAP1 PUSH1 0x4 PUSH2 0x1FE8 JUMP JUMPDEST PUSH8 0xFFFFFFFFFFFFFFFF DUP2 GT ISZERO PUSH2 0xD5C JUMPI PUSH2 0xD5C PUSH2 0x133C JUMP JUMPDEST PUSH1 0x40 MLOAD SWAP1 DUP1 DUP3 MSTORE DUP1 PUSH1 0x1F ADD PUSH1 0x1F NOT AND PUSH1 0x20 ADD DUP3 ADD PUSH1 0x40 MSTORE DUP1 ISZERO PUSH2 0xD86 JUMPI PUSH1 0x20 DUP3 ADD DUP2 DUP1 CALLDATASIZE DUP4 CALLDATACOPY ADD SWAP1 POP JUMPDEST POP SWAP1 POP PUSH1 0x1 DUP3 ADD PUSH1 0x20 DUP3 ADD DUP6 DUP7 MLOAD DUP8 ADD PUSH1 0x20 DUP2 ADD DUP1 MLOAD PUSH1 0x0 DUP3 MSTORE JUMPDEST DUP3 DUP5 LT ISZERO PUSH2 0xDFC JUMPI PUSH1 0x3 DUP5 ADD SWAP4 POP DUP4 MLOAD PUSH1 0x3F DUP2 PUSH1 0x12 SHR AND DUP8 ADD MLOAD DUP7 MSTORE8 PUSH1 0x1 DUP7 ADD SWAP6 POP PUSH1 0x3F DUP2 PUSH1 0xC SHR AND DUP8 ADD MLOAD DUP7 MSTORE8 PUSH1 0x1 DUP7 ADD SWAP6 POP PUSH1 0x3F DUP2 PUSH1 0x6 SHR AND DUP8 ADD MLOAD DUP7 MSTORE8 PUSH1 0x1 DUP7 ADD SWAP6 POP PUSH1 0x3F DUP2 AND DUP8 ADD MLOAD DUP7 MSTORE8 POP PUSH1 0x1 DUP6 ADD SWAP5 POP PUSH2 0xDA1 JUMP JUMPDEST SWAP1 MSTORE POP POP DUP6 MLOAD PUSH1 0x3 SWAP1 MOD PUSH1 0x1 DUP2 EQ PUSH2 0xE1B JUMPI PUSH1 0x2 DUP2 EQ PUSH2 0xE2E JUMPI PUSH2 0xE36 JUMP JUMPDEST PUSH1 0x3D PUSH1 0x1 DUP4 SUB MSTORE8 PUSH1 0x3D PUSH1 0x2 DUP4 SUB MSTORE8 PUSH2 0xE36 JUMP JUMPDEST PUSH1 0x3D PUSH1 0x1 DUP4 SUB MSTORE8 JUMPDEST POP SWAP2 SWAP6 SWAP5 POP POP POP POP POP JUMP JUMPDEST DUP1 DUP1 PUSH2 0xE55 JUMPI POP PUSH1 0x1 PUSH1 0x1 PUSH1 0xA0 SHL SUB DUP3 AND ISZERO ISZERO JUMPDEST ISZERO PUSH2 0xF4F JUMPI PUSH1 0x0 PUSH2 0xE65 DUP5 PUSH2 0x86E JUMP JUMPDEST SWAP1 POP PUSH1 0x1 PUSH1 0x1 PUSH1 0xA0 SHL SUB DUP4 AND ISZERO DUP1 ISZERO SWAP1 PUSH2 0xE91 JUMPI POP DUP3 PUSH1 0x1 PUSH1 0x1 PUSH1 0xA0 SHL SUB AND DUP2 PUSH1 0x1 PUSH1 0x1 PUSH1 0xA0 SHL SUB AND EQ ISZERO JUMPDEST DUP1 ISZERO PUSH2 0xEC3 JUMPI POP PUSH1 0x1 PUSH1 0x1 PUSH1 0xA0 SHL SUB DUP1 DUP3 AND PUSH1 0x0 SWAP1 DUP2 MSTORE PUSH1 0x3 PUSH1 0x20 SWAP1 DUP2 MSTORE PUSH1 0x40 DUP1 DUP4 KECCAK256 SWAP4 DUP8 AND DUP4 MSTORE SWAP3 SWAP1 MSTORE KECCAK256 SLOAD PUSH1 0xFF AND ISZERO JUMPDEST ISZERO PUSH2 0xF05 JUMPI PUSH1 0x40 MLOAD PUSH32 0xA9FBF51F00000000000000000000000000000000000000000000000000000000 DUP2 MSTORE PUSH1 0x1 PUSH1 0x1 PUSH1 0xA0 SHL SUB DUP5 AND PUSH1 0x4 DUP3 ADD MSTORE PUSH1 0x24 ADD PUSH2 0x475 JUMP JUMPDEST DUP2 ISZERO PUSH2 0xF4D JUMPI DUP4 DUP6 PUSH1 0x1 PUSH1 0x1 PUSH1 0xA0 SHL SUB AND DUP3 PUSH1 0x1 PUSH1 0x1 PUSH1 0xA0 SHL SUB AND PUSH32 0x8C5BE1E5EBEC7D5BD14F71427D1E84F3DD0314C0F7B2291E5B200AC8C7C3B925 PUSH1 0x40 MLOAD PUSH1 0x40 MLOAD DUP1 SWAP2 SUB SWAP1 LOG4 JUMPDEST POP JUMPDEST POP POP PUSH1 0x0 SWAP1 DUP2 MSTORE PUSH1 0x2 PUSH1 0x20 MSTORE PUSH1 0x40 SWAP1 KECCAK256 DUP1 SLOAD PUSH20 0xFFFFFFFFFFFFFFFFFFFFFFFFFFFFFFFFFFFFFFFF NOT AND PUSH1 0x1 PUSH1 0x1 PUSH1 0xA0 SHL SUB SWAP3 SWAP1 SWAP3 AND SWAP2 SWAP1 SWAP2 OR SWAP1 SSTORE JUMP JUMPDEST PUSH2 0xF97 DUP4 DUP4 DUP4 PUSH2 0x112B JUMP JUMPDEST PUSH2 0x513 JUMPI PUSH1 0x1 PUSH1 0x1 PUSH1 0xA0 SHL SUB DUP4 AND PUSH2 0xFC5 JUMPI PUSH1 0x40 MLOAD PUSH4 0x7E273289 PUSH1 0xE0 SHL DUP2 MSTORE PUSH1 0x4 DUP2 ADD DUP3 SWAP1 MSTORE PUSH1 0x24 ADD PUSH2 0x475 JUMP JUMPDEST PUSH1 0x40 MLOAD PUSH32 0x177E802F00000000000000000000000000000000000000000000000000000000 DUP2 MSTORE PUSH1 0x1 PUSH1 0x1 PUSH1 0xA0 SHL SUB DUP4 AND PUSH1 0x4 DUP3 ADD MSTORE PUSH1 0x24 DUP2 ADD DUP3 SWAP1 MSTORE PUSH1 0x44 ADD PUSH2 0x475 JUMP JUMPDEST PUSH1 0x0 DUP1 PUSH27 0x184F03E93FF9F4DAA797ED6E38ED64BF6A1F010000000000000000 DUP4 LT PUSH2 0x1052 JUMPI PUSH27 0x184F03E93FF9F4DAA797ED6E38ED64BF6A1F010000000000000000 DUP4 DIV SWAP3 POP PUSH1 0x40 ADD JUMPDEST PUSH14 0x4EE2D6D415B85ACEF8100000000 DUP4 LT PUSH2 0x107E JUMPI PUSH14 0x4EE2D6D415B85ACEF8100000000 DUP4 DIV SWAP3 POP PUSH1 0x20 ADD JUMPDEST PUSH7 0x2386F26FC10000 DUP4 LT PUSH2 0x109C JUMPI PUSH7 0x2386F26FC10000 DUP4 DIV SWAP3 POP PUSH1 0x10 ADD JUMPDEST PUSH4 0x5F5E100 DUP4 LT PUSH2 0x10B4 JUMPI PUSH4 0x5F5E100 DUP4 DIV SWAP3 POP PUSH1 0x8 ADD JUMPDEST PUSH2 0x2710 DUP4 LT PUSH2 0x10C8 JUMPI PUSH2 0x2710 DUP4 DIV SWAP3 POP PUSH1 0x4 ADD JUMPDEST PUSH1 0x64 DUP4 LT PUSH2 0x10DA JUMPI PUSH1 0x64 DUP4 DIV SWAP3 POP PUSH1 0x2 ADD JUMPDEST PUSH1 0xA DUP4 LT PUSH2 0x411 JUMPI PUSH1 0x1 ADD SWAP3 SWAP2 POP POP JUMP JUMPDEST PUSH1 0x60 DUP3 PUSH2 0x10F7 DUP4 PUSH2 0xCE1 JUMP JUMPDEST PUSH1 0x40 MLOAD PUSH1 0x20 ADD PUSH2 0x677 SWAP3 SWAP2 SWAP1 PUSH2 0x1FFF JUMP JUMPDEST PUSH1 0x40 DUP1 MLOAD PUSH1 0x3F DUP4 ADD PUSH1 0x1F NOT AND DUP2 ADD SWAP1 SWAP2 MSTORE DUP2 DUP2 MSTORE DUP2 DUP4 PUSH1 0x20 DUP4 ADD DUP7 EXTCODECOPY SWAP4 SWAP3 POP POP POP JUMP JUMPDEST PUSH1 0x0 PUSH1 0x1 PUSH1 0x1 PUSH1 0xA0 SHL SUB DUP4 AND ISZERO DUP1 ISZERO SWAP1 PUSH2 0x11A9 JUMPI POP DUP3 PUSH1 0x1 PUSH1 0x1 PUSH1 0xA0 SHL SUB AND DUP5 PUSH1 0x1 PUSH1 0x1 PUSH1 0xA0 SHL SUB AND EQ DUP1 PUSH2 0x1185 JUMPI POP PUSH1 0x1 PUSH1 0x1 PUSH1 0xA0 SHL SUB DUP1 DUP6 AND PUSH1 0x0 SWAP1 DUP2 MSTORE PUSH1 0x3 PUSH1 0x20 SWAP1 DUP2 MSTORE PUSH1 0x40 DUP1 DUP4 KECCAK256 SWAP4 DUP8 AND DUP4 MSTORE SWAP3 SWAP1 MSTORE KECCAK256 SLOAD PUSH1 0xFF AND JUMPDEST DUP1 PUSH2 0x11A9 JUMPI POP PUSH1 0x0 DUP3 DUP2 MSTORE PUSH1 0x2 PUSH1 0x20 MSTORE PUSH1 0x40 SWAP1 KECCAK256 SLOAD PUSH1 0x1 PUSH1 0x1 PUSH1 0xA0 SHL SUB DUP5 DUP2 AND SWAP2 AND EQ JUMPDEST SWAP5 SWAP4 POP POP POP POP JUMP JUMPDEST PUSH1 0x1 PUSH1 0x1 PUSH1 0xE0 SHL SUB NOT DUP2 AND DUP2 EQ PUSH2 0x11C7 JUMPI PUSH1 0x0 DUP1 REVERT JUMPDEST POP JUMP JUMPDEST PUSH1 0x0 PUSH1 0x20 DUP3 DUP5 SUB SLT ISZERO PUSH2 0x11DC JUMPI PUSH1 0x0 DUP1 REVERT JUMPDEST DUP2 CALLDATALOAD PUSH2 0x73F DUP2 PUSH2 0x11B1 JUMP JUMPDEST PUSH1 0x0 JUMPDEST DUP4 DUP2 LT ISZERO PUSH2 0x1202 JUMPI DUP2 DUP2 ADD MLOAD DUP4 DUP3 ADD MSTORE PUSH1 0x20 ADD PUSH2 0x11EA JUMP JUMPDEST POP POP PUSH1 0x0 SWAP2 ADD MSTORE JUMP JUMPDEST PUSH1 0x0 DUP2 MLOAD DUP1 DUP5 MSTORE PUSH2 0x1223 DUP2 PUSH1 0x20 DUP7 ADD PUSH1 0x20 DUP7 ADD PUSH2 0x11E7 JUMP JUMPDEST PUSH1 0x1F ADD PUSH1 0x1F NOT AND SWAP3 SWAP1 SWAP3 ADD PUSH1 0x20 ADD SWAP3 SWAP2 POP POP JUMP JUMPDEST PUSH1 0x20 DUP2 MSTORE PUSH1 0x0 PUSH2 0x73F PUSH1 0x20 DUP4 ADD DUP5 PUSH2 0x120B JUMP JUMPDEST PUSH1 0x0 PUSH1 0x20 DUP3 DUP5 SUB SLT ISZERO PUSH2 0x125C JUMPI PUSH1 0x0 DUP1 REVERT JUMPDEST POP CALLDATALOAD SWAP2 SWAP1 POP JUMP JUMPDEST DUP1 CALLDATALOAD PUSH1 0x1 PUSH1 0x1 PUSH1 0xA0 SHL SUB DUP2 AND DUP2 EQ PUSH2 0x127A JUMPI PUSH1 0x0 DUP1 REVERT JUMPDEST SWAP2 SWAP1 POP JUMP JUMPDEST PUSH1 0x0 DUP1 PUSH1 0x40 DUP4 DUP6 SUB SLT ISZERO PUSH2 0x1292 JUMPI PUSH1 0x0 DUP1 REVERT JUMPDEST PUSH2 0x129B DUP4 PUSH2 0x1263 JUMP JUMPDEST SWAP5 PUSH1 0x20 SWAP4 SWAP1 SWAP4 ADD CALLDATALOAD SWAP4 POP POP POP JUMP JUMPDEST PUSH1 0x0 DUP1 PUSH1 0x0 PUSH1 0x60 DUP5 DUP7 SUB SLT ISZERO PUSH2 0x12BE JUMPI PUSH1 0x0 DUP1 REVERT JUMPDEST PUSH2 0x12C7 DUP5 PUSH2 0x1263 JUMP JUMPDEST SWAP3 POP PUSH2 0x12D5 PUSH1 0x20 DUP6 ADD PUSH2 0x1263 JUMP JUMPDEST SWAP2 POP PUSH1 0x40 DUP5 ADD CALLDATALOAD SWAP1 POP SWAP3 POP SWAP3 POP SWAP3 JUMP JUMPDEST PUSH1 0x0 PUSH1 0x20 DUP3 DUP5 SUB SLT ISZERO PUSH2 0x12F7 JUMPI PUSH1 0x0 DUP1 REVERT JUMPDEST PUSH2 0x73F DUP3 PUSH2 0x1263 JUMP JUMPDEST PUSH1 0x0 DUP1 PUSH1 0x40 DUP4 DUP6 SUB SLT ISZERO PUSH2 0x1313 JUMPI PUSH1 0x0 DUP1 REVERT JUMPDEST PUSH2 0x131C DUP4 PUSH2 0x1263 JUMP JUMPDEST SWAP2 POP PUSH1 0x20 DUP4 ADD CALLDATALOAD DUP1 ISZERO ISZERO DUP2 EQ PUSH2 0x1331 JUMPI PUSH1 0x0 DUP1 REVERT JUMPDEST DUP1 SWAP2 POP POP SWAP3 POP SWAP3 SWAP1 POP JUMP JUMPDEST PUSH4 0x4E487B71 PUSH1 0xE0 SHL PUSH1 0x0 MSTORE PUSH1 0x41 PUSH1 0x4 MSTORE PUSH1 0x24 PUSH1 0x0 REVERT JUMPDEST PUSH1 0x40 MLOAD PUSH1 0x1F DUP3 ADD PUSH1 0x1F NOT AND DUP2 ADD PUSH8 0xFFFFFFFFFFFFFFFF DUP2 GT DUP3 DUP3 LT OR ISZERO PUSH2 0x137B JUMPI PUSH2 0x137B PUSH2 0x133C JUMP JUMPDEST PUSH1 0x40 MSTORE SWAP2 SWAP1 POP JUMP JUMPDEST PUSH1 0x0 PUSH8 0xFFFFFFFFFFFFFFFF DUP3 GT ISZERO PUSH2 0x139D JUMPI PUSH2 0x139D PUSH2 0x133C JUMP JUMPDEST POP PUSH1 0x1F ADD PUSH1 0x1F NOT AND PUSH1 0x20 ADD SWAP1 JUMP JUMPDEST PUSH1 0x0 PUSH2 0x13BE PUSH2 0x13B9 DUP5 PUSH2 0x1383 JUMP JUMPDEST PUSH2 0x1352 JUMP JUMPDEST SWAP1 POP DUP3 DUP2 MSTORE DUP4 DUP4 DUP4 ADD GT ISZERO PUSH2 0x13D2 JUMPI PUSH1 0x0 DUP1 REVERT JUMPDEST DUP3 DUP3 PUSH1 0x20 DUP4 ADD CALLDATACOPY PUSH1 0x0 PUSH1 0x20 DUP5 DUP4 ADD ADD MSTORE SWAP4 SWAP3 POP POP POP JUMP JUMPDEST PUSH1 0x0 DUP1 PUSH1 0x0 DUP1 PUSH1 0x80 DUP6 DUP8 SUB SLT ISZERO PUSH2 0x13FF JUMPI PUSH1 0x0 DUP1 REVERT JUMPDEST PUSH2 0x1408 DUP6 PUSH2 0x1263 JUMP JUMPDEST SWAP4 POP PUSH2 0x1416 PUSH1 0x20 DUP7 ADD PUSH2 0x1263 JUMP JUMPDEST SWAP3 POP PUSH1 0x40 DUP6 ADD CALLDATALOAD SWAP2 POP PUSH1 0x60 DUP6 ADD CALLDATALOAD PUSH8 0xFFFFFFFFFFFFFFFF DUP2 GT ISZERO PUSH2 0x1439 JUMPI PUSH1 0x0 DUP1 REVERT JUMPDEST DUP6 ADD PUSH1 0x1F DUP2 ADD DUP8 SGT PUSH2 0x144A JUMPI PUSH1 0x0 DUP1 REVERT JUMPDEST PUSH2 0x1459 DUP8 DUP3 CALLDATALOAD PUSH1 0x20 DUP5 ADD PUSH2 0x13AB JUMP JUMPDEST SWAP2 POP POP SWAP3 SWAP6 SWAP2 SWAP5 POP SWAP3 POP JUMP JUMPDEST PUSH1 0x0 DUP1 PUSH1 0x40 DUP4 DUP6 SUB SLT ISZERO PUSH2 0x1478 JUMPI PUSH1 0x0 DUP1 REVERT JUMPDEST DUP3 CALLDATALOAD SWAP2 POP PUSH1 0x20 DUP4 ADD CALLDATALOAD PUSH8 0xFFFFFFFFFFFFFFFF DUP2 GT ISZERO PUSH2 0x1496 JUMPI PUSH1 0x0 DUP1 REVERT JUMPDEST DUP4 ADD PUSH1 0x1F DUP2 ADD DUP6 SGT PUSH2 0x14A7 JUMPI PUSH1 0x0 DUP1 REVERT JUMPDEST PUSH2 0x14B6 DUP6 DUP3 CALLDATALOAD PUSH1 0x20 DUP5 ADD PUSH2 0x13AB JUMP JUMPDEST SWAP2 POP POP SWAP3 POP SWAP3 SWAP1 POP JUMP JUMPDEST PUSH1 0x0 DUP1 PUSH1 0x40 DUP4 DUP6 SUB SLT ISZERO PUSH2 0x14D3 JUMPI PUSH1 0x0 DUP1 REVERT JUMPDEST PUSH2 0x14DC DUP4 PUSH2 0x1263 JUMP JUMPDEST SWAP2 POP PUSH2 0x14EA PUSH1 0x20 DUP5 ADD PUSH2 0x1263 JUMP JUMPDEST SWAP1 POP SWAP3 POP SWAP3 SWAP1 POP JUMP JUMPDEST PUSH1 0x0 DUP2 MLOAD PUSH2 0x1505 DUP2 DUP6 PUSH1 0x20 DUP7 ADD PUSH2 0x11E7 JUMP JUMPDEST SWAP3 SWAP1 SWAP3 ADD SWAP3 SWAP2 POP POP JUMP JUMPDEST PUSH32 0x3C73766720786D6C6E733D22687474703A2F2F7777772E77332E6F72672F3230 DUP2 MSTORE PUSH32 0x30302F737667222076696577426F783D2230203020323136302032313630223E PUSH1 0x20 DUP3 ADD MSTORE PUSH32 0x3C212D2D20494D41474553202D2D3E3C696D61676520687265663D2200000000 PUSH1 0x40 DUP3 ADD MSTORE PUSH1 0x0 DUP8 MLOAD PUSH2 0x1593 DUP2 PUSH1 0x5C DUP6 ADD PUSH1 0x20 DUP13 ADD PUSH2 0x11E7 JUMP JUMPDEST PUSH1 0x2F PUSH1 0xF8 SHL PUSH1 0x5C SWAP2 DUP5 ADD SWAP2 DUP3 ADD MSTORE DUP8 MLOAD PUSH2 0x15B4 DUP2 PUSH1 0x5D DUP5 ADD PUSH1 0x20 DUP13 ADD PUSH2 0x11E7 JUMP JUMPDEST PUSH32 0x2F706F7369746976652F00000000000000000000000000000000000000000000 PUSH1 0x5D SWAP3 SWAP1 SWAP2 ADD SWAP2 DUP3 ADD MSTORE DUP7 MLOAD PUSH2 0x15F2 DUP2 PUSH1 0x67 DUP5 ADD PUSH1 0x20 DUP12 ADD PUSH2 0x11E7 JUMP JUMPDEST PUSH32 0x2E6A706722206865696768743D2232313630222077696474683D223231363022 PUSH1 0x67 SWAP3 SWAP1 SWAP2 ADD SWAP2 DUP3 ADD MSTORE PUSH32 0x206F7061636974793D2230223E3C616E696D617465206174747269627574654E PUSH1 0x87 DUP3 ADD MSTORE PUSH32 0x616D653D226F706163697479222066726F6D3D22302220746F3D223122206475 PUSH1 0xA7 DUP3 ADD MSTORE PUSH32 0x723D22302E34732220626567696E3D22706F7369746976652E626567696E2220 PUSH1 0xC7 DUP3 ADD MSTORE PUSH32 0x66696C6C3D22667265657A65222F3E3C2F696D6167653E3C696D616765206872 PUSH1 0xE7 DUP3 ADD MSTORE PUSH32 0x65663D2200000000000000000000000000000000000000000000000000000000 PUSH2 0x107 DUP3 ADD MSTORE PUSH2 0x1AF3 PUSH2 0x1728 PUSH2 0x1722 PUSH2 0x170C PUSH2 0x1706 PUSH2 0x16F9 PUSH2 0x10B DUP8 ADD DUP13 PUSH2 0x14F3 JUMP JUMPDEST PUSH1 0x2F PUSH1 0xF8 SHL DUP2 MSTORE PUSH1 0x1 ADD SWAP1 JUMP JUMPDEST DUP10 PUSH2 0x14F3 JUMP JUMPDEST PUSH10 0x2F6E656761746976652F PUSH1 0xB0 SHL DUP2 MSTORE PUSH1 0xA ADD SWAP1 JUMP JUMPDEST DUP7 PUSH2 0x14F3 JUMP JUMPDEST PUSH32 0x2E6A706722206865696768743D2232313630222077696474683D223231363022 DUP2 MSTORE PUSH32 0x3E3C616E696D617465206174747269627574654E616D653D226F706163697479 PUSH1 0x20 DUP3 ADD MSTORE PUSH32 0x222066726F6D3D22312220746F3D223022206475723D22302E34732220626567 PUSH1 0x40 DUP3 ADD MSTORE PUSH32 0x696E3D22706F7369746976652E626567696E222066696C6C3D22667265657A65 PUSH1 0x60 DUP3 ADD MSTORE PUSH32 0x222F3E3C616E696D617465206174747269627574654E616D653D226F70616369 PUSH1 0x80 DUP3 ADD MSTORE PUSH32 0x7479222066726F6D3D22302220746F3D223122206475723D22302E3473222062 PUSH1 0xA0 DUP3 ADD MSTORE PUSH32 0x6567696E3D226E656761746976652E626567696E222066696C6C3D2266726565 PUSH1 0xC0 DUP3 ADD MSTORE PUSH32 0x7A65222F3E3C2F696D6167653E3C212D2D20434F4E54524F4C53202D2D3E3C72 PUSH1 0xE0 DUP3 ADD MSTORE PUSH32 0x6563742077696474683D223022206865696768743D2232313630222066696C6C PUSH2 0x100 DUP3 ADD MSTORE PUSH32 0x3D227472616E73706172656E74223E3C616E696D617465206174747269627574 PUSH2 0x120 DUP3 ADD MSTORE PUSH32 0x654E616D653D227769647468222066726F6D3D22323136302220746F3D223022 PUSH2 0x140 DUP3 ADD MSTORE PUSH32 0x206475723D22302E34732220626567696E3D22636C69636B222066696C6C3D22 PUSH2 0x160 DUP3 ADD MSTORE PUSH32 0x667265657A65222069643D226E6567617469766522202F3E3C616E696D617465 PUSH2 0x180 DUP3 ADD MSTORE PUSH32 0x206174747269627574654E616D653D227769647468222066726F6D3D22302220 PUSH2 0x1A0 DUP3 ADD MSTORE PUSH32 0x746F3D223231363022206475723D22302E34732220626567696E3D22706F7369 PUSH2 0x1C0 DUP3 ADD MSTORE PUSH32 0x746976652E626567696E222066696C6C3D22667265657A6522202F3E3C2F7265 PUSH2 0x1E0 DUP3 ADD MSTORE PUSH32 0x63743E3C726563742077696474683D223231363022206865696768743D223231 PUSH2 0x200 DUP3 ADD MSTORE PUSH32 0x3630222066696C6C3D227472616E73706172656E74223E3C616E696D61746520 PUSH2 0x220 DUP3 ADD MSTORE PUSH32 0x6174747269627574654E616D653D227769647468222066726F6D3D2230222074 PUSH2 0x240 DUP3 ADD MSTORE PUSH32 0x6F3D223231363022206475723D22302E34732220626567696E3D226E65676174 PUSH2 0x260 DUP3 ADD MSTORE PUSH32 0x6976652E626567696E222066696C6C3D22667265657A6522202F3E3C616E696D PUSH2 0x280 DUP3 ADD MSTORE PUSH32 0x617465206174747269627574654E616D653D227769647468222066726F6D3D22 PUSH2 0x2A0 DUP3 ADD MSTORE PUSH32 0x323136302220746F3D223022206475723D22302E34732220626567696E3D2263 PUSH2 0x2C0 DUP3 ADD MSTORE PUSH32 0x6C69636B222066696C6C3D22667265657A65222069643D22706F736974697665 PUSH2 0x2E0 DUP3 ADD MSTORE PUSH32 0x22202F3E3C2F726563743E3C2F7376673E000000000000000000000000000000 PUSH2 0x300 DUP3 ADD MSTORE PUSH2 0x311 ADD SWAP1 JUMP JUMPDEST SWAP10 SWAP9 POP POP POP POP POP POP POP POP POP JUMP JUMPDEST PUSH32 0x7B226964223A2000000000000000000000000000000000000000000000000000 DUP2 MSTORE PUSH1 0x0 DUP8 MLOAD PUSH2 0x1B38 DUP2 PUSH1 0x7 DUP6 ADD PUSH1 0x20 DUP13 ADD PUSH2 0x11E7 JUMP JUMPDEST PUSH32 0x2C226E616D65223A202200000000000000000000000000000000000000000000 PUSH1 0x7 SWAP2 DUP5 ADD SWAP2 DUP3 ADD MSTORE DUP8 MLOAD PUSH2 0x1B75 DUP2 PUSH1 0x11 DUP5 ADD PUSH1 0x20 DUP13 ADD PUSH2 0x11E7 JUMP JUMPDEST PUSH32 0x222C226465736372697074696F6E223A20224469676974616C204E6567617469 PUSH1 0x11 SWAP3 SWAP1 SWAP2 ADD SWAP2 DUP3 ADD MSTORE PUSH32 0x76652C204C6174656E7420280000000000000000000000000000000000000000 PUSH1 0x31 DUP3 ADD MSTORE DUP7 MLOAD PUSH2 0x1BD9 DUP2 PUSH1 0x3D DUP5 ADD PUSH1 0x20 DUP12 ADD PUSH2 0x11E7 JUMP JUMPDEST PUSH32 0x206F6620383029222C22696D616765223A2022697066733A2F2F000000000000 PUSH1 0x3D SWAP3 SWAP1 SWAP2 ADD SWAP2 DUP3 ADD MSTORE DUP6 MLOAD PUSH2 0x1C17 DUP2 PUSH1 0x57 DUP5 ADD PUSH1 0x20 DUP11 ADD PUSH2 0x11E7 JUMP JUMPDEST PUSH2 0x1CEC PUSH2 0x1C77 PUSH2 0x1C71 PUSH2 0x1C48 PUSH2 0x1C42 PUSH1 0x57 DUP7 DUP9 ADD ADD PUSH10 0x2F6E656761746976652F PUSH1 0xB0 SHL DUP2 MSTORE PUSH1 0xA ADD SWAP1 JUMP JUMPDEST DUP11 PUSH2 0x14F3 JUMP JUMPDEST PUSH32 0x2E6A7067222C22616E696D6174696F6E5F75726C223A20220000000000000000 DUP2 MSTORE PUSH1 0x18 ADD SWAP1 JUMP JUMPDEST DUP8 PUSH2 0x14F3 JUMP JUMPDEST PUSH32 0x222C2261747472696275746573223A205B7B2274726169745F74797065223A20 DUP2 MSTORE PUSH32 0x22417274697374222C2276616C7565223A20224A61636B204275746368657222 PUSH1 0x20 DUP3 ADD MSTORE PUSH32 0x7D5D7D0000000000000000000000000000000000000000000000000000000000 PUSH1 0x40 DUP3 ADD MSTORE PUSH1 0x43 ADD SWAP1 JUMP JUMPDEST SWAP11 SWAP10 POP POP POP POP POP POP POP POP POP POP JUMP JUMPDEST PUSH1 0x0 PUSH1 0x20 DUP1 DUP4 DUP6 SUB SLT ISZERO PUSH2 0x1D0D JUMPI PUSH1 0x0 DUP1 REVERT JUMPDEST DUP3 MLOAD PUSH8 0xFFFFFFFFFFFFFFFF DUP1 DUP3 GT ISZERO PUSH2 0x1D25 JUMPI PUSH1 0x0 DUP1 REVERT JUMPDEST DUP2 DUP6 ADD SWAP2 POP DUP6 PUSH1 0x1F DUP4 ADD SLT PUSH2 0x1D39 JUMPI PUSH1 0x0 DUP1 REVERT JUMPDEST DUP2 MLOAD DUP2 DUP2 GT ISZERO PUSH2 0x1D4B JUMPI PUSH2 0x1D4B PUSH2 0x133C JUMP JUMPDEST DUP1 PUSH1 0x5 SHL PUSH2 0x1D5A DUP6 DUP3 ADD PUSH2 0x1352 JUMP JUMPDEST SWAP2 DUP3 MSTORE DUP4 DUP2 ADD DUP6 ADD SWAP2 DUP6 DUP2 ADD SWAP1 DUP10 DUP5 GT ISZERO PUSH2 0x1D74 JUMPI PUSH1 0x0 DUP1 REVERT JUMPDEST DUP7 DUP7 ADD SWAP3 POP JUMPDEST DUP4 DUP4 LT ISZERO PUSH2 0x1AF3 JUMPI DUP3 MLOAD DUP6 DUP2 GT ISZERO PUSH2 0x1D92 JUMPI PUSH1 0x0 DUP1 DUP2 REVERT JUMPDEST DUP7 ADD PUSH1 0x3F DUP2 ADD DUP12 SGT PUSH2 0x1DA4 JUMPI PUSH1 0x0 DUP1 DUP2 REVERT JUMPDEST DUP8 DUP2 ADD MLOAD PUSH1 0x40 PUSH2 0x1DB6 PUSH2 0x13B9 DUP4 PUSH2 0x1383 JUMP JUMPDEST DUP3 DUP2 MSTORE DUP14 DUP3 DUP5 DUP7 ADD ADD GT ISZERO PUSH2 0x1DCB JUMPI PUSH1 0x0 DUP1 DUP2 REVERT JUMPDEST PUSH2 0x1DDA DUP4 DUP13 DUP4 ADD DUP5 DUP8 ADD PUSH2 0x11E7 JUMP JUMPDEST DUP6 MSTORE POP POP POP SWAP2 DUP7 ADD SWAP2 SWAP1 DUP7 ADD SWAP1 PUSH2 0x1D7A JUMP JUMPDEST PUSH4 0x4E487B71 PUSH1 0xE0 SHL PUSH1 0x0 MSTORE PUSH1 0x11 PUSH1 0x4 MSTORE PUSH1 0x24 PUSH1 0x0 REVERT JUMPDEST DUP2 DUP2 SUB DUP2 DUP2 GT ISZERO PUSH2 0x411 JUMPI PUSH2 0x411 PUSH2 0x1DEC JUMP JUMPDEST PUSH4 0x4E487B71 PUSH1 0xE0 SHL PUSH1 0x0 MSTORE PUSH1 0x32 PUSH1 0x4 MSTORE PUSH1 0x24 PUSH1 0x0 REVERT JUMPDEST PUSH32 0x7B226E616D65223A202200000000000000000000000000000000000000000000 DUP2 MSTORE PUSH1 0x0 DUP5 MLOAD PUSH2 0x1E63 DUP2 PUSH1 0xA DUP6 ADD PUSH1 0x20 DUP10 ADD PUSH2 0x11E7 JUMP JUMPDEST PUSH32 0x222C226465736372697074696F6E223A20220000000000000000000000000000 PUSH1 0xA SWAP2 DUP5 ADD SWAP2 DUP3 ADD MSTORE DUP5 MLOAD PUSH2 0x1EA0 DUP2 PUSH1 0x1C DUP5 ADD PUSH1 0x20 DUP10 ADD PUSH2 0x11E7 JUMP JUMPDEST PUSH32 0x222C22696D616765223A2022697066733A2F2F00000000000000000000000000 PUSH1 0x1C SWAP3 SWAP1 SWAP2 ADD SWAP2 DUP3 ADD MSTORE DUP4 MLOAD PUSH2 0x1EDE DUP2 PUSH1 0x2F DUP5 ADD PUSH1 0x20 DUP9 ADD PUSH2 0x11E7 JUMP JUMPDEST PUSH32 0x2F706F7369746976652F312E6A7067227D000000000000000000000000000000 PUSH1 0x2F SWAP3 SWAP1 SWAP2 ADD SWAP2 DUP3 ADD MSTORE PUSH1 0x40 ADD SWAP6 SWAP5 POP POP POP POP POP JUMP JUMPDEST PUSH32 0x646174613A6170706C69636174696F6E2F6A736F6E3B6261736536342C000000 DUP2 MSTORE PUSH1 0x0 DUP3 MLOAD PUSH2 0x1F4D DUP2 PUSH1 0x1D DUP6 ADD PUSH1 0x20 DUP8 ADD PUSH2 0x11E7 JUMP JUMPDEST SWAP2 SWAP1 SWAP2 ADD PUSH1 0x1D ADD SWAP3 SWAP2 POP POP JUMP JUMPDEST PUSH1 0x0 PUSH1 0x1 PUSH1 0x1 PUSH1 0xA0 SHL SUB DUP1 DUP8 AND DUP4 MSTORE DUP1 DUP7 AND PUSH1 0x20 DUP5 ADD MSTORE POP DUP4 PUSH1 0x40 DUP4 ADD MSTORE PUSH1 0x80 PUSH1 0x60 DUP4 ADD MSTORE PUSH2 0x1F8C PUSH1 0x80 DUP4 ADD DUP5 PUSH2 0x120B JUMP JUMPDEST SWAP7 SWAP6 POP POP POP POP POP POP JUMP JUMPDEST PUSH1 0x0 PUSH1 0x20 DUP3 DUP5 SUB SLT ISZERO PUSH2 0x1FA8 JUMPI PUSH1 0x0 DUP1 REVERT JUMPDEST DUP2 MLOAD PUSH2 0x73F DUP2 PUSH2 0x11B1 JUMP JUMPDEST DUP1 DUP3 ADD DUP1 DUP3 GT ISZERO PUSH2 0x411 JUMPI PUSH2 0x411 PUSH2 0x1DEC JUMP JUMPDEST PUSH1 0x0 DUP3 PUSH2 0x1FE3 JUMPI PUSH4 0x4E487B71 PUSH1 0xE0 SHL PUSH1 0x0 MSTORE PUSH1 0x12 PUSH1 0x4 MSTORE PUSH1 0x24 PUSH1 0x0 REVERT JUMPDEST POP DIV SWAP1 JUMP JUMPDEST DUP1 DUP3 MUL DUP2 ISZERO DUP3 DUP3 DIV DUP5 EQ OR PUSH2 0x411 JUMPI PUSH2 0x411 PUSH2 0x1DEC JUMP JUMPDEST PUSH32 0x646174613A000000000000000000000000000000000000000000000000000000 DUP2 MSTORE PUSH1 0x0 DUP4 MLOAD PUSH2 0x2037 DUP2 PUSH1 0x5 DUP6 ADD PUSH1 0x20 DUP9 ADD PUSH2 0x11E7 JUMP JUMPDEST PUSH32 0x3B6261736536342C000000000000000000000000000000000000000000000000 PUSH1 0x5 SWAP2 DUP5 ADD SWAP2 DUP3 ADD MSTORE DUP4 MLOAD PUSH2 0x2074 DUP2 PUSH1 0xD DUP5 ADD PUSH1 0x20 DUP9 ADD PUSH2 0x11E7 JUMP JUMPDEST ADD PUSH1 0xD ADD SWAP5 SWAP4 POP POP POP POP JUMP INVALID COINBASE TIMESTAMP NUMBER PREVRANDAO GASLIMIT CHAINID SELFBALANCE BASEFEE BLOBHASH BLOBBASEFEE 0x4B 0x4C 0x4D 0x4E 0x4F POP MLOAD MSTORE MSTORE8 SLOAD SSTORE JUMP JUMPI PC MSIZE GAS PUSH2 0x6263 PUSH5 0x6566676869 PUSH11 0x6B6C6D6E6F707172737475 PUSH23 0x7778797A303132333435363738392B2F516D4E54387042 PUSH12 0x746A666851764C4B37594147 PUSH22 0x624645426E315A31444B444D357A4774797566755769 0x4B PUSH24 0x533830207375727265616C69737420776F726B7320657870 PUSH13 0x6F72696E672074686520737061 PUSH4 0x65206265 PUSH21 0x7765656E207265616C20616E64207265616C697A65 PUSH5 0x2C20707265 PUSH14 0x696572696E672061742050617269 PUSH20 0x2050686F746F2032303234206F6E207375727265 PUSH2 0x6C69 PUSH20 0x6D27732063656E74656E6E69616C2E2045616368 KECCAK256 PUSH21 0x6F6B656E2073657276657320617320616E206F7269 PUSH8 0x696E616C20646967 PUSH10 0x74616C206E6567617469 PUSH23 0x652C206D6174657269616C697A696E672061732053696C PUSH23 0x65722047656C6174696E205072696E7473207669612050 PUSH2 0x7269 PUSH20 0x277320686973746F72696320504943544F206C61 PUSH3 0x6F7261 PUSH21 0x6F72792EA264697066735822122097D61755283D3F 0xE4 MUL 0xCF 0xD6 0xD1 DUP5 DUP4 0xBD AND 0xAB DUP2 0xAA SSTORE 0xD2 0xFB 0x1E SMOD PUSH20 0x4C4A23EA98484964736F6C634300081800330000 "
        },
        "methodIdentifiers": {
          "approve(address,uint256)": "095ea7b3",
          "balanceOf(address)": "70a08231",
          "burn(uint256)": "42966c68",
          "contentId()": "d97aa977",
          "contractURI()": "e8a3d485",
          "description()": "7284e416",
          "getApproved(uint256)": "081812fc",
          "isApprovedForAll(address,address)": "e985e9c5",
          "name()": "06fdde03",
          "ownerOf(uint256)": "6352211e",
          "safeTransferFrom(address,address,uint256)": "42842e0e",
          "safeTransferFrom(address,address,uint256,bytes)": "b88d4fde",
          "setApprovalForAll(address,bool)": "a22cb465",
          "supportsInterface(bytes4)": "01ffc9a7",
          "symbol()": "95d89b41",
          "tokenAnimation(uint256)": "6344f311",
          "tokenAnimation(uint256,string)": "c02137d1",
          "tokenName(uint256)": "e725f877",
          "tokenURI(uint256)": "c87b56dd",
          "transferFrom(address,address,uint256)": "23b872dd"
        }
      }
    }
  }
}