{
  "_format": "hh-sol-artifact-1",
  "contractName": "Latent",
  "sourceName": "contracts/Latent.sol",
  "abi": [
    {
      "inputs": [
        {
          "internalType": "bytes",
          "name": "encodedNames",
          "type": "bytes"
        }
      ],
      "stateMutability": "nonpayable",
      "type": "constructor"
    },
    {
      "inputs": [
        {
          "internalType": "address",
          "name": "sender",
          "type": "address"
        },
        {
          "internalType": "uint256",
          "name": "tokenId",
          "type": "uint256"
        },
        {
          "internalType": "address",
          "name": "owner",
          "type": "address"
        }
      ],
      "name": "ERC721IncorrectOwner",
      "type": "error"
    },
    {
      "inputs": [
        {
          "internalType": "address",
          "name": "operator",
          "type": "address"
        },
        {
          "internalType": "uint256",
          "name": "tokenId",
          "type": "uint256"
        }
      ],
      "name": "ERC721InsufficientApproval",
      "type": "error"
    },
    {
      "inputs": [
        {
          "internalType": "address",
          "name": "approver",
          "type": "address"
        }
      ],
      "name": "ERC721InvalidApprover",
      "type": "error"
    },
    {
      "inputs": [
        {
          "internalType": "address",
          "name": "operator",
          "type": "address"
        }
      ],
      "name": "ERC721InvalidOperator",
      "type": "error"
    },
    {
      "inputs": [
        {
          "internalType": "address",
          "name": "owner",
          "type": "address"
        }
      ],
      "name": "ERC721InvalidOwner",
      "type": "error"
    },
    {
      "inputs": [
        {
          "internalType": "address",
          "name": "receiver",
          "type": "address"
        }
      ],
      "name": "ERC721InvalidReceiver",
      "type": "error"
    },
    {
      "inputs": [
        {
          "internalType": "address",
          "name": "sender",
          "type": "address"
        }
      ],
      "name": "ERC721InvalidSender",
      "type": "error"
    },
    {
      "inputs": [
        {
          "internalType": "uint256",
          "name": "tokenId",
          "type": "uint256"
        }
      ],
      "name": "ERC721NonexistentToken",
      "type": "error"
    },
    {
      "anonymous": false,
      "inputs": [
        {
          "indexed": true,
          "internalType": "address",
          "name": "owner",
          "type": "address"
        },
        {
          "indexed": true,
          "internalType": "address",
          "name": "approved",
          "type": "address"
        },
        {
          "indexed": true,
          "internalType": "uint256",
          "name": "tokenId",
          "type": "uint256"
        }
      ],
      "name": "Approval",
      "type": "event"
    },
    {
      "anonymous": false,
      "inputs": [
        {
          "indexed": true,
          "internalType": "address",
          "name": "owner",
          "type": "address"
        },
        {
          "indexed": true,
          "internalType": "address",
          "name": "operator",
          "type": "address"
        },
        {
          "indexed": false,
          "internalType": "bool",
          "name": "approved",
          "type": "bool"
        }
      ],
      "name": "ApprovalForAll",
      "type": "event"
    },
    {
      "anonymous": false,
      "inputs": [
        {
          "indexed": true,
          "internalType": "address",
          "name": "from",
          "type": "address"
        },
        {
          "indexed": true,
          "internalType": "address",
          "name": "to",
          "type": "address"
        },
        {
          "indexed": true,
          "internalType": "uint256",
          "name": "tokenId",
          "type": "uint256"
        }
      ],
      "name": "Transfer",
      "type": "event"
    },
    {
      "inputs": [
        {
          "internalType": "address",
          "name": "to",
          "type": "address"
        },
        {
          "internalType": "uint256",
          "name": "tokenId",
          "type": "uint256"
        }
      ],
      "name": "approve",
      "outputs": [],
      "stateMutability": "nonpayable",
      "type": "function"
    },
    {
      "inputs": [
        {
          "internalType": "address",
          "name": "owner",
          "type": "address"
        }
      ],
      "name": "balanceOf",
      "outputs": [
        {
          "internalType": "uint256",
          "name": "",
          "type": "uint256"
        }
      ],
      "stateMutability": "view",
      "type": "function"
    },
    {
      "inputs": [
        {
          "internalType": "uint256",
          "name": "tokenId",
          "type": "uint256"
        }
      ],
      "name": "burn",
      "outputs": [],
      "stateMutability": "nonpayable",
      "type": "function"
    },
    {
      "inputs": [],
      "name": "contentId",
      "outputs": [
        {
          "internalType": "string",
          "name": "",
          "type": "string"
        }
      ],
      "stateMutability": "view",
      "type": "function"
    },
    {
      "inputs": [],
      "name": "contractURI",
      "outputs": [
        {
          "internalType": "string",
          "name": "",
          "type": "string"
        }
      ],
      "stateMutability": "pure",
      "type": "function"
    },
    {
      "inputs": [],
      "name": "description",
      "outputs": [
        {
          "internalType": "string",
          "name": "",
          "type": "string"
        }
      ],
      "stateMutability": "view",
      "type": "function"
    },
    {
      "inputs": [
        {
          "internalType": "uint256",
          "name": "tokenId",
          "type": "uint256"
        }
      ],
      "name": "getApproved",
      "outputs": [
        {
          "internalType": "address",
          "name": "",
          "type": "address"
        }
      ],
      "stateMutability": "view",
      "type": "function"
    },
    {
      "inputs": [
        {
          "internalType": "address",
          "name": "owner",
          "type": "address"
        },
        {
          "internalType": "address",
          "name": "operator",
          "type": "address"
        }
      ],
      "name": "isApprovedForAll",
      "outputs": [
        {
          "internalType": "bool",
          "name": "",
          "type": "bool"
        }
      ],
      "stateMutability": "view",
      "type": "function"
    },
    {
      "inputs": [],
      "name": "name",
      "outputs": [
        {
          "internalType": "string",
          "name": "",
          "type": "string"
        }
      ],
      "stateMutability": "view",
      "type": "function"
    },
    {
      "inputs": [
        {
          "internalType": "uint256",
          "name": "tokenId",
          "type": "uint256"
        }
      ],
      "name": "ownerOf",
      "outputs": [
        {
          "internalType": "address",
          "name": "",
          "type": "address"
        }
      ],
      "stateMutability": "view",
      "type": "function"
    },
    {
      "inputs": [
        {
          "internalType": "address",
          "name": "from",
          "type": "address"
        },
        {
          "internalType": "address",
          "name": "to",
          "type": "address"
        },
        {
          "internalType": "uint256",
          "name": "tokenId",
          "type": "uint256"
        }
      ],
      "name": "safeTransferFrom",
      "outputs": [],
      "stateMutability": "nonpayable",
      "type": "function"
    },
    {
      "inputs": [
        {
          "internalType": "address",
          "name": "from",
          "type": "address"
        },
        {
          "internalType": "address",
          "name": "to",
          "type": "address"
        },
        {
          "internalType": "uint256",
          "name": "tokenId",
          "type": "uint256"
        },
        {
          "internalType": "bytes",
          "name": "data",
          "type": "bytes"
        }
      ],
      "name": "safeTransferFrom",
      "outputs": [],
      "stateMutability": "nonpayable",
      "type": "function"
    },
    {
      "inputs": [
        {
          "internalType": "address",
          "name": "operator",
          "type": "address"
        },
        {
          "internalType": "bool",
          "name": "approved",
          "type": "bool"
        }
      ],
      "name": "setApprovalForAll",
      "outputs": [],
      "stateMutability": "nonpayable",
      "type": "function"
    },
    {
      "inputs": [
        {
          "internalType": "bytes4",
          "name": "interfaceId",
          "type": "bytes4"
        }
      ],
      "name": "supportsInterface",
      "outputs": [
        {
          "internalType": "bool",
          "name": "",
          "type": "bool"
        }
      ],
      "stateMutability": "view",
      "type": "function"
    },
    {
      "inputs": [],
      "name": "symbol",
      "outputs": [
        {
          "internalType": "string",
          "name": "",
          "type": "string"
        }
      ],
      "stateMutability": "view",
      "type": "function"
    },
    {
      "inputs": [
        {
          "internalType": "uint256",
          "name": "tokenId",
          "type": "uint256"
        }
      ],
      "name": "tokenAnimation",
      "outputs": [
        {
          "internalType": "string",
          "name": "",
          "type": "string"
        }
      ],
      "stateMutability": "view",
      "type": "function"
    },
    {
      "inputs": [
        {
          "internalType": "uint256",
          "name": "tokenId",
          "type": "uint256"
        },
        {
          "internalType": "string",
          "name": "gateway",
          "type": "string"
        }
      ],
      "name": "tokenAnimation",
      "outputs": [
        {
          "internalType": "string",
          "name": "",
          "type": "string"
        }
      ],
      "stateMutability": "view",
      "type": "function"
    },
    {
      "inputs": [
        {
          "internalType": "uint256",
          "name": "tokenId",
          "type": "uint256"
        }
      ],
      "name": "tokenName",
      "outputs": [
        {
          "internalType": "string",
          "name": "",
          "type": "string"
        }
      ],
      "stateMutability": "view",
      "type": "function"
    },
    {
      "inputs": [
        {
          "internalType": "uint256",
          "name": "tokenId",
          "type": "uint256"
        }
      ],
      "name": "tokenURI",
      "outputs": [
        {
          "internalType": "string",
          "name": "",
          "type": "string"
        }
      ],
      "stateMutability": "view",
      "type": "function"
    },
    {
      "inputs": [
        {
          "internalType": "address",
          "name": "from",
          "type": "address"
        },
        {
          "internalType": "address",
          "name": "to",
          "type": "address"
        },
        {
          "internalType": "uint256",
          "name": "tokenId",
          "type": "uint256"
        }
      ],
      "name": "transferFrom",
      "outputs": [],
      "stateMutability": "nonpayable",
      "type": "function"
    }
  ],
  "bytecode": "0x60806040523480156200001157600080fd5b50604051620026da380380620026da8339810160408190526200003491620004eb565b6200003f8162000097565b600480546001600160a01b0319166001600160a01b039290921691909117905560015b605081116200008f57620000793382600062000146565b50806200008681620005a3565b91505062000062565b505062000629565b60008082604051602001620000ad9190620005cb565b6040516020818303038152906040529050600081604051602001620000d39190620005f3565b60405160208183030381529060405290508051602082016000f092506001600160a01b0383166200013f5760405162461bcd60e51b81526020600482015260116024820152701111541313d65351539517d19052531151607a1b60448201526064015b60405180910390fd5b5050919050565b6000828152602081905260408120546001600160a01b039081169083161562000176576200017681848662000248565b6001600160a01b03811615620001b657620001956000858180620002b7565b6001600160a01b038116600090815260016020526040902080546000190190555b6001600160a01b03851615620001e9576001600160a01b0385166000908152600160208190526040909120805490910190555b60008481526020819052604080822080546001600160a01b0319166001600160a01b0389811691821790925591518793918516917fddf252ad1be2c89b69c2b068fc378daa952ba7f163c4a11628f55a4df523b3ef91a4949350505050565b62000255838383620003e5565b620002b2576001600160a01b0383166200028657604051637e27328960e01b81526004810182905260240162000136565b60405163177e802f60e01b81526001600160a01b03831660048201526024810182905260440162000136565b505050565b8080620002cc57506001600160a01b03821615155b15620003b5576000620002df846200046e565b90506001600160a01b038316158015906200030c5750826001600160a01b0316816001600160a01b031614155b80156200033f57506001600160a01b0380821660009081526003602090815260408083209387168352929052205460ff16155b156200036a5760405163a9fbf51f60e01b81526001600160a01b038416600482015260240162000136565b8115620003b35783856001600160a01b0316826001600160a01b03167f8c5be1e5ebec7d5bd14f71427d1e84f3dd0314c0f7b2291e5b200ac8c7c3b92560405160405180910390a45b505b5050600090815260026020526040902080546001600160a01b0319166001600160a01b0392909216919091179055565b60006001600160a01b03831615801590620004665750826001600160a01b0316846001600160a01b031614806200044157506001600160a01b0380851660009081526003602090815260408083209387168352929052205460ff165b806200046657506000828152600260205260409020546001600160a01b038481169116145b949350505050565b6000818152602081905260408120546001600160a01b031680620004a957604051637e27328960e01b81526004810184905260240162000136565b92915050565b634e487b7160e01b600052604160045260246000fd5b60005b83811015620004e2578181015183820152602001620004c8565b50506000910152565b600060208284031215620004fe57600080fd5b81516001600160401b03808211156200051657600080fd5b818401915084601f8301126200052b57600080fd5b815181811115620005405762000540620004af565b604051601f8201601f19908116603f011681019083821181831017156200056b576200056b620004af565b816040528281528760208487010111156200058557600080fd5b62000598836020830160208801620004c5565b979650505050505050565b600060018201620005c457634e487b7160e01b600052601160045260246000fd5b5060010190565b6000815260008251620005e6816001850160208701620004c5565b9190910160010192915050565b6a600b5981380380925939f360a81b815281516000906200061c81600b850160208701620004c5565b91909101600b0192915050565b6120a180620006396000396000f3fe608060405234801561001057600080fd5b506004361061016c5760003560e01c80637284e416116100cd578063c87b56dd11610081578063e725f87711610066578063e725f87714610357578063e8a3d4851461036a578063e985e9c51461037257600080fd5b8063c87b56dd1461033c578063d97aa9771461034f57600080fd5b8063a22cb465116100b2578063a22cb46514610303578063b88d4fde14610316578063c02137d11461032957600080fd5b80637284e4161461028b57806395d89b41146102c757600080fd5b806342842e0e116101245780636344f311116101095780636344f311146102445780636352211e1461025757806370a082311461026a57600080fd5b806342842e0e1461021e57806342966c681461023157600080fd5b8063081812fc11610155578063081812fc146101cb578063095ea7b3146101f657806323b872dd1461020b57600080fd5b806301ffc9a71461017157806306fdde0314610199575b600080fd5b61018461017f3660046111f7565b6103ae565b60405190151581526020015b60405180910390f35b6101be6040518060400160405280600681526020016513185d195b9d60d21b81525081565b604051610190919061126b565b6101de6101d936600461127e565b61044b565b6040516001600160a01b039091168152602001610190565b6102096102043660046112b3565b610474565b005b6102096102193660046112dd565b610483565b61020961022c3660046112dd565b61052c565b61020961023f36600461127e565b61054c565b6101be61025236600461127e565b610558565b6101de61026536600461127e565b610599565b61027d610278366004611319565b6105a4565b604051908152602001610190565b6101be6040518060400160405280601581526020017f54686520696e66696e697465206265747765656e2e000000000000000000000081525081565b6101be6040518060400160405280600681526020017f4c4154454e54000000000000000000000000000000000000000000000000000081525081565b610209610311366004611334565b610605565b61020961032436600461141d565b610610565b6101be610337366004611499565b610627565b6101be61034a36600461127e565b6106a5565b6101be610757565b6101be61036536600461127e565b610773565b6101be6107d8565b6101846103803660046114f4565b6001600160a01b03918216600090815260036020908152604080832093909416825291909152205460ff1690565b60006001600160e01b031982167f80ac58cd00000000000000000000000000000000000000000000000000000000148061041157506001600160e01b031982167f5b5e139f00000000000000000000000000000000000000000000000000000000145b8061044557507f01ffc9a7000000000000000000000000000000000000000000000000000000006001600160e01b03198316145b92915050565b60006104568261089b565b506000828152600260205260409020546001600160a01b0316610445565b61047f8282336108d4565b5050565b6001600160a01b0382166104b257604051633250574960e11b8152600060048201526024015b60405180910390fd5b60006104bf8383336108e1565b9050836001600160a01b0316816001600160a01b031614610526576040517f64283d7b0000000000000000000000000000000000000000000000000000000081526001600160a01b03808616600483015260248201849052821660448201526064016104a9565b50505050565b61054783838360405180602001604052806000815250610610565b505050565b61047f600082336108e1565b6060610445826040518060400160405280601881526020017f68747470733a2f2f697066732e76762e78797a2f697066730000000000000000815250610627565b60006104458261089b565b60006001600160a01b0382166105e9576040517f89c62b64000000000000000000000000000000000000000000000000000000008152600060048201526024016104a9565b506001600160a01b031660009081526001602052604090205490565b61047f3383836109ea565b61061b848484610483565b61052684848484610aa2565b60606106328361089b565b50816040518060600160405280602e815260200161203e602e913961065685610bcb565b846040518060600160405280602e815260200161203e602e913961067988610bcb565b60405160200161068e96959493929190611543565b604051602081830303815290604052905092915050565b60606106b08261089b565b506104456106bd83610bcb565b6106c684610773565b6040518060600160405280602e815260200161203e602e91396106e886610bcb565b61072f61072a886040518060400160405280601881526020017f68747470733a2f2f697066732e76762e78797a2f697066730000000000000000815250610627565b610c6b565b604051602001610743959493929190611a9a565b604051602081830303815290604052610cac565b6040518060600160405280602e815260200161203e602e913981565b606061077e8261089b565b50600454600090610797906001600160a01b0316610ced565b8060200190518101906107aa9190611c77565b9050806107b8600185611d7f565b815181106107c8576107c8611d92565b6020026020010151915050919050565b606060006040518060400160405280600681526020016513185d195b9d60d21b8152506040518060400160405280601581526020017f54686520696e66696e697465206265747765656e2e00000000000000000000008152506040518060600160405280602e815260200161203e602e913960405160200161085c93929190611da8565b604051602081830303815290604052905061087681610d0e565b6040516020016108869190611e92565b60405160208183030381529060405291505090565b6000818152602081905260408120546001600160a01b03168061044557604051637e27328960e01b8152600481018490526024016104a9565b6105478383836001610e6e565b6000828152602081905260408120546001600160a01b039081169083161561090e5761090e818486610fb9565b6001600160a01b0381161561094c5761092b600085600080610e6e565b6001600160a01b038116600090815260016020526040902080546000190190555b6001600160a01b0385161561097e576001600160a01b0385166000908152600160208190526040909120805490910190555b600084815260208190526040808220805473ffffffffffffffffffffffffffffffffffffffff19166001600160a01b0389811691821790925591518793918516917fddf252ad1be2c89b69c2b068fc378daa952ba7f163c4a11628f55a4df523b3ef91a4949350505050565b6001600160a01b038216610a35576040517f5b08ba180000000000000000000000000000000000000000000000000000000081526001600160a01b03831660048201526024016104a9565b6001600160a01b03838116600081815260036020908152604080832094871680845294825291829020805460ff191686151590811790915591519182527f17307eab39ab6107e8899845ad3d59bd9653f200f220920489ca2b5937696c31910160405180910390a3505050565b6001600160a01b0383163b1561052657604051630a85bd0160e11b81526001600160a01b0384169063150b7a0290610ae4903390889087908790600401611ed7565b6020604051808303816000875af1925050508015610b1f575060408051601f3d908101601f19168201909252610b1c91810190611f13565b60015b610b88573d808015610b4d576040519150601f19603f3d011682016040523d82523d6000602084013e610b52565b606091505b508051600003610b8057604051633250574960e11b81526001600160a01b03851660048201526024016104a9565b805181602001fd5b6001600160e01b03198116630a85bd0160e11b14610bc457604051633250574960e11b81526001600160a01b03851660048201526024016104a9565b5050505050565b60606000610bd883611036565b600101905060008167ffffffffffffffff811115610bf857610bf8611370565b6040519080825280601f01601f191660200182016040528015610c22576020820181803683370190505b5090508181016020015b600019017f3031323334353637383961626364656600000000000000000000000000000000600a86061a8153600a8504945084610c2c57509392505050565b60606104456040518060400160405280600d81526020017f696d6167652f7376672b786d6c0000000000000000000000000000000000000081525083611118565b60606104456040518060400160405280601081526020017f6170706c69636174696f6e2f6a736f6e0000000000000000000000000000000081525083611118565b6060610445826001610d09816001600160a01b0384163b611d7f565b611135565b60608151600003610d2d57505060408051602081019091526000815290565b6000604051806060016040528060408152602001611ffe6040913990506000600384516002610d5c9190611f30565b610d669190611f43565b610d71906004611f65565b67ffffffffffffffff811115610d8957610d89611370565b6040519080825280601f01601f191660200182016040528015610db3576020820181803683370190505b50905060018201602082018586518701602081018051600082525b82841015610e29576003840193508351603f8160121c168701518653600186019550603f81600c1c168701518653600186019550603f8160061c168701518653600186019550603f8116870151865350600185019450610dce565b9052505085516003900660018114610e485760028114610e5b57610e63565b603d6001830353603d6002830353610e63565b603d60018303535b509195945050505050565b8080610e8257506001600160a01b03821615155b15610f7c576000610e928461089b565b90506001600160a01b03831615801590610ebe5750826001600160a01b0316816001600160a01b031614155b8015610ef057506001600160a01b0380821660009081526003602090815260408083209387168352929052205460ff16155b15610f32576040517fa9fbf51f0000000000000000000000000000000000000000000000000000000081526001600160a01b03841660048201526024016104a9565b8115610f7a5783856001600160a01b0316826001600160a01b03167f8c5be1e5ebec7d5bd14f71427d1e84f3dd0314c0f7b2291e5b200ac8c7c3b92560405160405180910390a45b505b50506000908152600260205260409020805473ffffffffffffffffffffffffffffffffffffffff19166001600160a01b0392909216919091179055565b610fc4838383611158565b610547576001600160a01b038316610ff257604051637e27328960e01b8152600481018290526024016104a9565b6040517f177e802f0000000000000000000000000000000000000000000000000000000081526001600160a01b0383166004820152602481018290526044016104a9565b6000807a184f03e93ff9f4daa797ed6e38ed64bf6a1f010000000000000000831061107f577a184f03e93ff9f4daa797ed6e38ed64bf6a1f010000000000000000830492506040015b6d04ee2d6d415b85acef810000000083106110ab576d04ee2d6d415b85acef8100000000830492506020015b662386f26fc1000083106110c957662386f26fc10000830492506010015b6305f5e10083106110e1576305f5e100830492506008015b61271083106110f557612710830492506004015b60648310611107576064830492506002015b600a83106104455760010192915050565b60608261112483610d0e565b60405160200161068e929190611f7c565b60408051603f8301601f19168101909152818152818360208301863c9392505050565b60006001600160a01b038316158015906111d65750826001600160a01b0316846001600160a01b031614806111b257506001600160a01b0380851660009081526003602090815260408083209387168352929052205460ff165b806111d657506000828152600260205260409020546001600160a01b038481169116145b949350505050565b6001600160e01b0319811681146111f457600080fd5b50565b60006020828403121561120957600080fd5b8135611214816111de565b9392505050565b60005b8381101561123657818101518382015260200161121e565b50506000910152565b6000815180845261125781602086016020860161121b565b601f01601f19169290920160200192915050565b602081526000611214602083018461123f565b60006020828403121561129057600080fd5b5035919050565b80356001600160a01b03811681146112ae57600080fd5b919050565b600080604083850312156112c657600080fd5b6112cf83611297565b946020939093013593505050565b6000806000606084860312156112f257600080fd5b6112fb84611297565b925061130960208501611297565b9150604084013590509250925092565b60006020828403121561132b57600080fd5b61121482611297565b6000806040838503121561134757600080fd5b61135083611297565b91506020830135801515811461136557600080fd5b809150509250929050565b634e487b7160e01b600052604160045260246000fd5b604051601f8201601f1916810167ffffffffffffffff811182821017156113af576113af611370565b604052919050565b600067ffffffffffffffff8211156113d1576113d1611370565b50601f01601f191660200190565b60006113f26113ed846113b7565b611386565b905082815283838301111561140657600080fd5b828260208301376000602084830101529392505050565b6000806000806080858703121561143357600080fd5b61143c85611297565b935061144a60208601611297565b925060408501359150606085013567ffffffffffffffff81111561146d57600080fd5b8501601f8101871361147e57600080fd5b61148d878235602084016113df565b91505092959194509250565b600080604083850312156114ac57600080fd5b82359150602083013567ffffffffffffffff8111156114ca57600080fd5b8301601f810185136114db57600080fd5b6114ea858235602084016113df565b9150509250929050565b6000806040838503121561150757600080fd5b61151083611297565b915061151e60208401611297565b90509250929050565b6000815161153981856020860161121b565b9290920192915050565b7f3c73766720786d6c6e733d22687474703a2f2f7777772e77332e6f72672f323081527f30302f737667222076696577426f783d2230203020323136302032313630223e60208201527f3c212d2d20494d41474553202d2d3e3c696d61676520687265663d22000000006040820152600087516115c781605c850160208c0161121b565b602f60f81b605c9184019182015287516115e881605d840160208c0161121b565b7f2f706f7369746976652f00000000000000000000000000000000000000000000605d92909101918201528651611626816067840160208b0161121b565b7f2e6a706722206865696768743d2232313630222077696474683d223231363022606792909101918201527f2f3e3c696d61676520687265663d2200000000000000000000000000000000006087820152611a8d6116c26116bc6116a66116a0611693609687018c611527565b602f60f81b815260010190565b89611527565b692f6e656761746976652f60b01b8152600a0190565b86611527565b7f2e6a706722206865696768743d2232313630222077696474683d22323136302281527f3e3c616e696d617465206174747269627574654e616d653d226f70616369747960208201527f222066726f6d3d22312220746f3d223022206475723d22302e3473222062656760408201527f696e3d22706f7369746976652e626567696e222066696c6c3d22667265657a6560608201527f222f3e3c616e696d617465206174747269627574654e616d653d226f7061636960808201527f7479222066726f6d3d22302220746f3d223122206475723d22302e347322206260a08201527f6567696e3d226e656761746976652e626567696e222066696c6c3d226672656560c08201527f7a65222f3e3c2f696d6167653e3c212d2d20434f4e54524f4c53202d2d3e3c7260e08201527f6563742077696474683d223022206865696768743d2232313630222066696c6c6101008201527f3d227472616e73706172656e74223e3c616e696d6174652061747472696275746101208201527f654e616d653d227769647468222066726f6d3d22323136302220746f3d2230226101408201527f206475723d22302e34732220626567696e3d22636c69636b222066696c6c3d226101608201527f667265657a65222069643d226e6567617469766522202f3e3c616e696d6174656101808201527f206174747269627574654e616d653d227769647468222066726f6d3d223022206101a08201527f746f3d223231363022206475723d22302e34732220626567696e3d22706f73696101c08201527f746976652e626567696e222066696c6c3d22667265657a6522202f3e3c2f72656101e08201527f63743e3c726563742077696474683d223231363022206865696768743d2232316102008201527f3630222066696c6c3d227472616e73706172656e74223e3c616e696d617465206102208201527f6174747269627574654e616d653d227769647468222066726f6d3d22302220746102408201527f6f3d223231363022206475723d22302e34732220626567696e3d226e656761746102608201527f6976652e626567696e222066696c6c3d22667265657a6522202f3e3c616e696d6102808201527f617465206174747269627574654e616d653d227769647468222066726f6d3d226102a08201527f323136302220746f3d223022206475723d22302e34732220626567696e3d22636102c08201527f6c69636b222066696c6c3d22667265657a65222069643d22706f7369746976656102e08201527f22202f3e3c2f726563743e3c2f7376673e0000000000000000000000000000006103008201526103110190565b9998505050505050505050565b7f7b226964223a2000000000000000000000000000000000000000000000000000815260008651611ad2816007850160208b0161121b565b7f2c226e616d65223a2022000000000000000000000000000000000000000000006007918401918201528651611b0f816011840160208b0161121b565b7f222c226465736372697074696f6e223a20224469676974616c206e6567617469601192909101918201527f7665206173207072696d6172792061727469666163742e222c0000000000000060318201527f22696d616765223a2022697066733a2f2f000000000000000000000000000000604a8201528551611b9981605b840160208a0161121b565b692f6e656761746976652f60b01b605b92909101918201528451611bc481606584016020890161121b565b611a8d611c02611bfc6065848601017f2e6a7067222c22616e696d6174696f6e5f75726c223a20220000000000000000815260180190565b87611527565b7f222c2261747472696275746573223a205b7b2274726169745f74797065223a2081527f22417274697374222c2276616c7565223a20224a61636b20427574636865722260208201527f7d5d7d0000000000000000000000000000000000000000000000000000000000604082015260430190565b60006020808385031215611c8a57600080fd5b825167ffffffffffffffff80821115611ca257600080fd5b818501915085601f830112611cb657600080fd5b815181811115611cc857611cc8611370565b8060051b611cd7858201611386565b9182528381018501918581019089841115611cf157600080fd5b86860192505b83831015611a8d57825185811115611d0f5760008081fd5b8601603f81018b13611d215760008081fd5b878101516040611d336113ed836113b7565b8281528d82848601011115611d485760008081fd5b611d57838c830184870161121b565b85525050509186019190860190611cf7565b634e487b7160e01b600052601160045260246000fd5b8181038181111561044557610445611d69565b634e487b7160e01b600052603260045260246000fd5b7f7b226e616d65223a202200000000000000000000000000000000000000000000815260008451611de081600a85016020890161121b565b7f222c226465736372697074696f6e223a20220000000000000000000000000000600a918401918201528451611e1d81601c84016020890161121b565b7f222c22696d616765223a2022697066733a2f2f00000000000000000000000000601c92909101918201528351611e5b81602f84016020880161121b565b7f2f706f7369746976652f312e6a7067227d000000000000000000000000000000602f929091019182015260400195945050505050565b7f646174613a6170706c69636174696f6e2f6a736f6e3b6261736536342c000000815260008251611eca81601d85016020870161121b565b91909101601d0192915050565b60006001600160a01b03808716835280861660208401525083604083015260806060830152611f09608083018461123f565b9695505050505050565b600060208284031215611f2557600080fd5b8151611214816111de565b8082018082111561044557610445611d69565b600082611f6057634e487b7160e01b600052601260045260246000fd5b500490565b808202811582820484141761044557610445611d69565b7f646174613a000000000000000000000000000000000000000000000000000000815260008351611fb481600585016020880161121b565b7f3b6261736536342c0000000000000000000000000000000000000000000000006005918401918201528351611ff181600d84016020880161121b565b01600d0194935050505056fe4142434445464748494a4b4c4d4e4f505152535455565758595a6162636465666768696a6b6c6d6e6f707172737475767778797a303132333435363738392b2f516d4e543870426b746a666851764c4b3759414775624645426e315a31444b444d357a47747975667557694b7753a26469706673582212207df514140468e16f8f08f76a630f98a8ccafac7f29f5b7b50153283a8f21f5ee64736f6c63430008180033",
  "linkReferences": {},
  "deployedLinkReferences": {}
}