{
  "_format": "hh-sol-artifact-1",
  "contractName": "Latent",
  "sourceName": "contracts/Latent.sol",
  "abi": [
    {
      "inputs": [
        {
          "internalType": "bytes",
          "name": "encodedNames",
          "type": "bytes"
        }
      ],
      "stateMutability": "nonpayable",
      "type": "constructor"
    },
    {
      "inputs": [
        {
          "internalType": "address",
          "name": "sender",
          "type": "address"
        },
        {
          "internalType": "uint256",
          "name": "tokenId",
          "type": "uint256"
        },
        {
          "internalType": "address",
          "name": "owner",
          "type": "address"
        }
      ],
      "name": "ERC721IncorrectOwner",
      "type": "error"
    },
    {
      "inputs": [
        {
          "internalType": "address",
          "name": "operator",
          "type": "address"
        },
        {
          "internalType": "uint256",
          "name": "tokenId",
          "type": "uint256"
        }
      ],
      "name": "ERC721InsufficientApproval",
      "type": "error"
    },
    {
      "inputs": [
        {
          "internalType": "address",
          "name": "approver",
          "type": "address"
        }
      ],
      "name": "ERC721InvalidApprover",
      "type": "error"
    },
    {
      "inputs": [
        {
          "internalType": "address",
          "name": "operator",
          "type": "address"
        }
      ],
      "name": "ERC721InvalidOperator",
      "type": "error"
    },
    {
      "inputs": [
        {
          "internalType": "address",
          "name": "owner",
          "type": "address"
        }
      ],
      "name": "ERC721InvalidOwner",
      "type": "error"
    },
    {
      "inputs": [
        {
          "internalType": "address",
          "name": "receiver",
          "type": "address"
        }
      ],
      "name": "ERC721InvalidReceiver",
      "type": "error"
    },
    {
      "inputs": [
        {
          "internalType": "address",
          "name": "sender",
          "type": "address"
        }
      ],
      "name": "ERC721InvalidSender",
      "type": "error"
    },
    {
      "inputs": [
        {
          "internalType": "uint256",
          "name": "tokenId",
          "type": "uint256"
        }
      ],
      "name": "ERC721NonexistentToken",
      "type": "error"
    },
    {
      "anonymous": false,
      "inputs": [
        {
          "indexed": true,
          "internalType": "address",
          "name": "owner",
          "type": "address"
        },
        {
          "indexed": true,
          "internalType": "address",
          "name": "approved",
          "type": "address"
        },
        {
          "indexed": true,
          "internalType": "uint256",
          "name": "tokenId",
          "type": "uint256"
        }
      ],
      "name": "Approval",
      "type": "event"
    },
    {
      "anonymous": false,
      "inputs": [
        {
          "indexed": true,
          "internalType": "address",
          "name": "owner",
          "type": "address"
        },
        {
          "indexed": true,
          "internalType": "address",
          "name": "operator",
          "type": "address"
        },
        {
          "indexed": false,
          "internalType": "bool",
          "name": "approved",
          "type": "bool"
        }
      ],
      "name": "ApprovalForAll",
      "type": "event"
    },
    {
      "anonymous": false,
      "inputs": [
        {
          "indexed": true,
          "internalType": "address",
          "name": "from",
          "type": "address"
        },
        {
          "indexed": true,
          "internalType": "address",
          "name": "to",
          "type": "address"
        },
        {
          "indexed": true,
          "internalType": "uint256",
          "name": "tokenId",
          "type": "uint256"
        }
      ],
      "name": "Transfer",
      "type": "event"
    },
    {
      "inputs": [
        {
          "internalType": "address",
          "name": "to",
          "type": "address"
        },
        {
          "internalType": "uint256",
          "name": "tokenId",
          "type": "uint256"
        }
      ],
      "name": "approve",
      "outputs": [],
      "stateMutability": "nonpayable",
      "type": "function"
    },
    {
      "inputs": [
        {
          "internalType": "address",
          "name": "owner",
          "type": "address"
        }
      ],
      "name": "balanceOf",
      "outputs": [
        {
          "internalType": "uint256",
          "name": "",
          "type": "uint256"
        }
      ],
      "stateMutability": "view",
      "type": "function"
    },
    {
      "inputs": [
        {
          "internalType": "uint256",
          "name": "tokenId",
          "type": "uint256"
        }
      ],
      "name": "burn",
      "outputs": [],
      "stateMutability": "nonpayable",
      "type": "function"
    },
    {
      "inputs": [],
      "name": "contentId",
      "outputs": [
        {
          "internalType": "string",
          "name": "",
          "type": "string"
        }
      ],
      "stateMutability": "view",
      "type": "function"
    },
    {
      "inputs": [],
      "name": "contractURI",
      "outputs": [
        {
          "internalType": "string",
          "name": "",
          "type": "string"
        }
      ],
      "stateMutability": "pure",
      "type": "function"
    },
    {
      "inputs": [],
      "name": "description",
      "outputs": [
        {
          "internalType": "string",
          "name": "",
          "type": "string"
        }
      ],
      "stateMutability": "view",
      "type": "function"
    },
    {
      "inputs": [
        {
          "internalType": "uint256",
          "name": "tokenId",
          "type": "uint256"
        }
      ],
      "name": "getApproved",
      "outputs": [
        {
          "internalType": "address",
          "name": "",
          "type": "address"
        }
      ],
      "stateMutability": "view",
      "type": "function"
    },
    {
      "inputs": [
        {
          "internalType": "address",
          "name": "owner",
          "type": "address"
        },
        {
          "internalType": "address",
          "name": "operator",
          "type": "address"
        }
      ],
      "name": "isApprovedForAll",
      "outputs": [
        {
          "internalType": "bool",
          "name": "",
          "type": "bool"
        }
      ],
      "stateMutability": "view",
      "type": "function"
    },
    {
      "inputs": [],
      "name": "name",
      "outputs": [
        {
          "internalType": "string",
          "name": "",
          "type": "string"
        }
      ],
      "stateMutability": "view",
      "type": "function"
    },
    {
      "inputs": [
        {
          "internalType": "uint256",
          "name": "tokenId",
          "type": "uint256"
        }
      ],
      "name": "ownerOf",
      "outputs": [
        {
          "internalType": "address",
          "name": "",
          "type": "address"
        }
      ],
      "stateMutability": "view",
      "type": "function"
    },
    {
      "inputs": [
        {
          "internalType": "address",
          "name": "from",
          "type": "address"
        },
        {
          "internalType": "address",
          "name": "to",
          "type": "address"
        },
        {
          "internalType": "uint256",
          "name": "tokenId",
          "type": "uint256"
        }
      ],
      "name": "safeTransferFrom",
      "outputs": [],
      "stateMutability": "nonpayable",
      "type": "function"
    },
    {
      "inputs": [
        {
          "internalType": "address",
          "name": "from",
          "type": "address"
        },
        {
          "internalType": "address",
          "name": "to",
          "type": "address"
        },
        {
          "internalType": "uint256",
          "name": "tokenId",
          "type": "uint256"
        },
        {
          "internalType": "bytes",
          "name": "data",
          "type": "bytes"
        }
      ],
      "name": "safeTransferFrom",
      "outputs": [],
      "stateMutability": "nonpayable",
      "type": "function"
    },
    {
      "inputs": [
        {
          "internalType": "address",
          "name": "operator",
          "type": "address"
        },
        {
          "internalType": "bool",
          "name": "approved",
          "type": "bool"
        }
      ],
      "name": "setApprovalForAll",
      "outputs": [],
      "stateMutability": "nonpayable",
      "type": "function"
    },
    {
      "inputs": [
        {
          "internalType": "bytes4",
          "name": "interfaceId",
          "type": "bytes4"
        }
      ],
      "name": "supportsInterface",
      "outputs": [
        {
          "internalType": "bool",
          "name": "",
          "type": "bool"
        }
      ],
      "stateMutability": "view",
      "type": "function"
    },
    {
      "inputs": [],
      "name": "symbol",
      "outputs": [
        {
          "internalType": "string",
          "name": "",
          "type": "string"
        }
      ],
      "stateMutability": "view",
      "type": "function"
    },
    {
      "inputs": [
        {
          "internalType": "uint256",
          "name": "tokenId",
          "type": "uint256"
        }
      ],
      "name": "tokenAnimation",
      "outputs": [
        {
          "internalType": "string",
          "name": "",
          "type": "string"
        }
      ],
      "stateMutability": "view",
      "type": "function"
    },
    {
      "inputs": [
        {
          "internalType": "uint256",
          "name": "tokenId",
          "type": "uint256"
        },
        {
          "internalType": "string",
          "name": "gateway",
          "type": "string"
        }
      ],
      "name": "tokenAnimation",
      "outputs": [
        {
          "internalType": "string",
          "name": "",
          "type": "string"
        }
      ],
      "stateMutability": "view",
      "type": "function"
    },
    {
      "inputs": [
        {
          "internalType": "uint256",
          "name": "tokenId",
          "type": "uint256"
        }
      ],
      "name": "tokenName",
      "outputs": [
        {
          "internalType": "string",
          "name": "",
          "type": "string"
        }
      ],
      "stateMutability": "view",
      "type": "function"
    },
    {
      "inputs": [
        {
          "internalType": "uint256",
          "name": "tokenId",
          "type": "uint256"
        }
      ],
      "name": "tokenURI",
      "outputs": [
        {
          "internalType": "string",
          "name": "",
          "type": "string"
        }
      ],
      "stateMutability": "view",
      "type": "function"
    },
    {
      "inputs": [
        {
          "internalType": "address",
          "name": "from",
          "type": "address"
        },
        {
          "internalType": "address",
          "name": "to",
          "type": "address"
        },
        {
          "internalType": "uint256",
          "name": "tokenId",
          "type": "uint256"
        }
      ],
      "name": "transferFrom",
      "outputs": [],
      "stateMutability": "nonpayable",
      "type": "function"
    }
  ],
  "bytecode": "0x60806040523480156200001157600080fd5b506040516200285b3803806200285b8339810160408190526200003491620004eb565b6200003f8162000097565b600480546001600160a01b0319166001600160a01b039290921691909117905560015b605081116200008f57620000793382600062000146565b50806200008681620005a3565b91505062000062565b505062000629565b60008082604051602001620000ad9190620005cb565b6040516020818303038152906040529050600081604051602001620000d39190620005f3565b60405160208183030381529060405290508051602082016000f092506001600160a01b0383166200013f5760405162461bcd60e51b81526020600482015260116024820152701111541313d65351539517d19052531151607a1b60448201526064015b60405180910390fd5b5050919050565b6000828152602081905260408120546001600160a01b039081169083161562000176576200017681848662000248565b6001600160a01b03811615620001b657620001956000858180620002b7565b6001600160a01b038116600090815260016020526040902080546000190190555b6001600160a01b03851615620001e9576001600160a01b0385166000908152600160208190526040909120805490910190555b60008481526020819052604080822080546001600160a01b0319166001600160a01b0389811691821790925591518793918516917fddf252ad1be2c89b69c2b068fc378daa952ba7f163c4a11628f55a4df523b3ef91a4949350505050565b62000255838383620003e5565b620002b2576001600160a01b0383166200028657604051637e27328960e01b81526004810182905260240162000136565b60405163177e802f60e01b81526001600160a01b03831660048201526024810182905260440162000136565b505050565b8080620002cc57506001600160a01b03821615155b15620003b5576000620002df846200046e565b90506001600160a01b038316158015906200030c5750826001600160a01b0316816001600160a01b031614155b80156200033f57506001600160a01b0380821660009081526003602090815260408083209387168352929052205460ff16155b156200036a5760405163a9fbf51f60e01b81526001600160a01b038416600482015260240162000136565b8115620003b35783856001600160a01b0316826001600160a01b03167f8c5be1e5ebec7d5bd14f71427d1e84f3dd0314c0f7b2291e5b200ac8c7c3b92560405160405180910390a45b505b5050600090815260026020526040902080546001600160a01b0319166001600160a01b0392909216919091179055565b60006001600160a01b03831615801590620004665750826001600160a01b0316846001600160a01b031614806200044157506001600160a01b0380851660009081526003602090815260408083209387168352929052205460ff165b806200046657506000828152600260205260409020546001600160a01b038481169116145b949350505050565b6000818152602081905260408120546001600160a01b031680620004a957604051637e27328960e01b81526004810184905260240162000136565b92915050565b634e487b7160e01b600052604160045260246000fd5b60005b83811015620004e2578181015183820152602001620004c8565b50506000910152565b600060208284031215620004fe57600080fd5b81516001600160401b03808211156200051657600080fd5b818401915084601f8301126200052b57600080fd5b815181811115620005405762000540620004af565b604051601f8201601f19908116603f011681019083821181831017156200056b576200056b620004af565b816040528281528760208487010111156200058557600080fd5b62000598836020830160208801620004c5565b979650505050505050565b600060018201620005c457634e487b7160e01b600052601160045260246000fd5b5060010190565b6000815260008251620005e6816001850160208701620004c5565b9190910160010192915050565b6a600b5981380380925939f360a81b815281516000906200061c81600b850160208701620004c5565b91909101600b0192915050565b61222280620006396000396000f3fe608060405234801561001057600080fd5b506004361061016c5760003560e01c80637284e416116100cd578063c87b56dd11610081578063e725f87711610066578063e725f87714610323578063e8a3d48514610336578063e985e9c51461033e57600080fd5b8063c87b56dd14610308578063d97aa9771461031b57600080fd5b8063a22cb465116100b2578063a22cb465146102cf578063b88d4fde146102e2578063c02137d1146102f557600080fd5b80637284e4161461028b57806395d89b411461029357600080fd5b806342842e0e116101245780636344f311116101095780636344f311146102445780636352211e1461025757806370a082311461026a57600080fd5b806342842e0e1461021e57806342966c681461023157600080fd5b8063081812fc11610155578063081812fc146101cb578063095ea7b3146101f657806323b872dd1461020b57600080fd5b806301ffc9a71461017157806306fdde0314610199575b600080fd5b61018461017f3660046111ca565b61037a565b60405190151581526020015b60405180910390f35b6101be6040518060400160405280600681526020016513185d195b9d60d21b81525081565b6040516101909190611237565b6101de6101d936600461124a565b610417565b6040516001600160a01b039091168152602001610190565b61020961020436600461127f565b610440565b005b6102096102193660046112a9565b61044f565b61020961022c3660046112a9565b6104f8565b61020961023f36600461124a565b610518565b6101be61025236600461124a565b610524565b6101de61026536600461124a565b610565565b61027d6102783660046112e5565b610570565b604051908152602001610190565b6101be6105d1565b6101be6040518060400160405280600681526020017f4c4154454e54000000000000000000000000000000000000000000000000000081525081565b6102096102dd366004611300565b6105ee565b6102096102f03660046113e9565b6105f9565b6101be610303366004611465565b610610565b6101be61031636600461124a565b61068e565b6101be610746565b6101be61033136600461124a565b610762565b6101be6107c7565b61018461034c3660046114c0565b6001600160a01b03918216600090815260036020908152604080832093909416825291909152205460ff1690565b60006001600160e01b031982167f80ac58cd0000000000000000000000000000000000000000000000000000000014806103dd57506001600160e01b031982167f5b5e139f00000000000000000000000000000000000000000000000000000000145b8061041157507f01ffc9a7000000000000000000000000000000000000000000000000000000006001600160e01b03198316145b92915050565b60006104228261086e565b506000828152600260205260409020546001600160a01b0316610411565b61044b8282336108a7565b5050565b6001600160a01b03821661047e57604051633250574960e11b8152600060048201526024015b60405180910390fd5b600061048b8383336108b4565b9050836001600160a01b0316816001600160a01b0316146104f2576040517f64283d7b0000000000000000000000000000000000000000000000000000000081526001600160a01b0380861660048301526024820184905282166044820152606401610475565b50505050565b610513838383604051806020016040528060008152506105f9565b505050565b61044b600082336108b4565b6060610411826040518060400160405280601881526020017f68747470733a2f2f697066732e76762e78797a2f697066730000000000000000815250610610565b60006104118261086e565b60006001600160a01b0382166105b5576040517f89c62b6400000000000000000000000000000000000000000000000000000000815260006004820152602401610475565b506001600160a01b031660009081526001602052604090205490565b60405180610120016040528060fe81526020016120ef60fe913981565b61044b3383836109bd565b61060484848461044f565b6104f284848484610a75565b606061061b8361086e565b50816040518060600160405280602e81526020016120c1602e913961063f85610b9e565b846040518060600160405280602e81526020016120c1602e913961066288610b9e565b6040516020016106779695949392919061150f565b604051602081830303815290604052905092915050565b60606106998261086e565b5060006106a583610b9e565b905061073f816106b485610762565b836040518060600160405280602e81526020016120c1602e9139856107166107118a6040518060400160405280601881526020017f68747470733a2f2f697066732e76762e78797a2f697066730000000000000000815250610610565b610c3e565b60405160200161072b96959493929190611b00565b604051602081830303815290604052610c7f565b9392505050565b6040518060600160405280602e81526020016120c1602e913981565b606061076d8261086e565b50600454600090610786906001600160a01b0316610cc0565b8060200190518101906107999190611cfa565b9050806107a7600185611e02565b815181106107b7576107b7611e15565b6020026020010151915050919050565b606060006040518060400160405280600681526020016513185d195b9d60d21b81525060405180610120016040528060fe81526020016120ef60fe91396040518060600160405280602e81526020016120c1602e913960405160200161082f93929190611e2b565b604051602081830303815290604052905061084981610ce1565b6040516020016108599190611f15565b60405160208183030381529060405291505090565b6000818152602081905260408120546001600160a01b03168061041157604051637e27328960e01b815260048101849052602401610475565b6105138383836001610e41565b6000828152602081905260408120546001600160a01b03908116908316156108e1576108e1818486610f8c565b6001600160a01b0381161561091f576108fe600085600080610e41565b6001600160a01b038116600090815260016020526040902080546000190190555b6001600160a01b03851615610951576001600160a01b0385166000908152600160208190526040909120805490910190555b600084815260208190526040808220805473ffffffffffffffffffffffffffffffffffffffff19166001600160a01b0389811691821790925591518793918516917fddf252ad1be2c89b69c2b068fc378daa952ba7f163c4a11628f55a4df523b3ef91a4949350505050565b6001600160a01b038216610a08576040517f5b08ba180000000000000000000000000000000000000000000000000000000081526001600160a01b0383166004820152602401610475565b6001600160a01b03838116600081815260036020908152604080832094871680845294825291829020805460ff191686151590811790915591519182527f17307eab39ab6107e8899845ad3d59bd9653f200f220920489ca2b5937696c31910160405180910390a3505050565b6001600160a01b0383163b156104f257604051630a85bd0160e11b81526001600160a01b0384169063150b7a0290610ab7903390889087908790600401611f5a565b6020604051808303816000875af1925050508015610af2575060408051601f3d908101601f19168201909252610aef91810190611f96565b60015b610b5b573d808015610b20576040519150601f19603f3d011682016040523d82523d6000602084013e610b25565b606091505b508051600003610b5357604051633250574960e11b81526001600160a01b0385166004820152602401610475565b805181602001fd5b6001600160e01b03198116630a85bd0160e11b14610b9757604051633250574960e11b81526001600160a01b0385166004820152602401610475565b5050505050565b60606000610bab83611009565b600101905060008167ffffffffffffffff811115610bcb57610bcb61133c565b6040519080825280601f01601f191660200182016040528015610bf5576020820181803683370190505b5090508181016020015b600019017f3031323334353637383961626364656600000000000000000000000000000000600a86061a8153600a8504945084610bff57509392505050565b60606104116040518060400160405280600d81526020017f696d6167652f7376672b786d6c00000000000000000000000000000000000000815250836110eb565b60606104116040518060400160405280601081526020017f6170706c69636174696f6e2f6a736f6e00000000000000000000000000000000815250836110eb565b6060610411826001610cdc816001600160a01b0384163b611e02565b611108565b60608151600003610d0057505060408051602081019091526000815290565b60006040518060600160405280604081526020016120816040913990506000600384516002610d2f9190611fb3565b610d399190611fc6565b610d44906004611fe8565b67ffffffffffffffff811115610d5c57610d5c61133c565b6040519080825280601f01601f191660200182016040528015610d86576020820181803683370190505b50905060018201602082018586518701602081018051600082525b82841015610dfc576003840193508351603f8160121c168701518653600186019550603f81600c1c168701518653600186019550603f8160061c168701518653600186019550603f8116870151865350600185019450610da1565b9052505085516003900660018114610e1b5760028114610e2e57610e36565b603d6001830353603d6002830353610e36565b603d60018303535b509195945050505050565b8080610e5557506001600160a01b03821615155b15610f4f576000610e658461086e565b90506001600160a01b03831615801590610e915750826001600160a01b0316816001600160a01b031614155b8015610ec357506001600160a01b0380821660009081526003602090815260408083209387168352929052205460ff16155b15610f05576040517fa9fbf51f0000000000000000000000000000000000000000000000000000000081526001600160a01b0384166004820152602401610475565b8115610f4d5783856001600160a01b0316826001600160a01b03167f8c5be1e5ebec7d5bd14f71427d1e84f3dd0314c0f7b2291e5b200ac8c7c3b92560405160405180910390a45b505b50506000908152600260205260409020805473ffffffffffffffffffffffffffffffffffffffff19166001600160a01b0392909216919091179055565b610f9783838361112b565b610513576001600160a01b038316610fc557604051637e27328960e01b815260048101829052602401610475565b6040517f177e802f0000000000000000000000000000000000000000000000000000000081526001600160a01b038316600482015260248101829052604401610475565b6000807a184f03e93ff9f4daa797ed6e38ed64bf6a1f0100000000000000008310611052577a184f03e93ff9f4daa797ed6e38ed64bf6a1f010000000000000000830492506040015b6d04ee2d6d415b85acef8100000000831061107e576d04ee2d6d415b85acef8100000000830492506020015b662386f26fc10000831061109c57662386f26fc10000830492506010015b6305f5e10083106110b4576305f5e100830492506008015b61271083106110c857612710830492506004015b606483106110da576064830492506002015b600a83106104115760010192915050565b6060826110f783610ce1565b604051602001610677929190611fff565b60408051603f8301601f19168101909152818152818360208301863c9392505050565b60006001600160a01b038316158015906111a95750826001600160a01b0316846001600160a01b0316148061118557506001600160a01b0380851660009081526003602090815260408083209387168352929052205460ff165b806111a957506000828152600260205260409020546001600160a01b038481169116145b949350505050565b6001600160e01b0319811681146111c757600080fd5b50565b6000602082840312156111dc57600080fd5b813561073f816111b1565b60005b838110156112025781810151838201526020016111ea565b50506000910152565b600081518084526112238160208601602086016111e7565b601f01601f19169290920160200192915050565b60208152600061073f602083018461120b565b60006020828403121561125c57600080fd5b5035919050565b80356001600160a01b038116811461127a57600080fd5b919050565b6000806040838503121561129257600080fd5b61129b83611263565b946020939093013593505050565b6000806000606084860312156112be57600080fd5b6112c784611263565b92506112d560208501611263565b9150604084013590509250925092565b6000602082840312156112f757600080fd5b61073f82611263565b6000806040838503121561131357600080fd5b61131c83611263565b91506020830135801515811461133157600080fd5b809150509250929050565b634e487b7160e01b600052604160045260246000fd5b604051601f8201601f1916810167ffffffffffffffff8111828210171561137b5761137b61133c565b604052919050565b600067ffffffffffffffff82111561139d5761139d61133c565b50601f01601f191660200190565b60006113be6113b984611383565b611352565b90508281528383830111156113d257600080fd5b828260208301376000602084830101529392505050565b600080600080608085870312156113ff57600080fd5b61140885611263565b935061141660208601611263565b925060408501359150606085013567ffffffffffffffff81111561143957600080fd5b8501601f8101871361144a57600080fd5b611459878235602084016113ab565b91505092959194509250565b6000806040838503121561147857600080fd5b82359150602083013567ffffffffffffffff81111561149657600080fd5b8301601f810185136114a757600080fd5b6114b6858235602084016113ab565b9150509250929050565b600080604083850312156114d357600080fd5b6114dc83611263565b91506114ea60208401611263565b90509250929050565b600081516115058185602086016111e7565b9290920192915050565b7f3c73766720786d6c6e733d22687474703a2f2f7777772e77332e6f72672f323081527f30302f737667222076696577426f783d2230203020323136302032313630223e60208201527f3c212d2d20494d41474553202d2d3e3c696d61676520687265663d220000000060408201526000875161159381605c850160208c016111e7565b602f60f81b605c9184019182015287516115b481605d840160208c016111e7565b7f2f706f7369746976652f00000000000000000000000000000000000000000000605d929091019182015286516115f2816067840160208b016111e7565b7f2e6a706722206865696768743d2232313630222077696474683d223231363022606792909101918201527f206f7061636974793d2230223e3c616e696d617465206174747269627574654e60878201527f616d653d226f706163697479222066726f6d3d22302220746f3d22312220647560a78201527f723d22302e34732220626567696e3d22706f7369746976652e626567696e222060c78201527f66696c6c3d22667265657a65222f3e3c2f696d6167653e3c696d61676520687260e78201527f65663d2200000000000000000000000000000000000000000000000000000000610107820152611af361172861172261170c6117066116f961010b87018c6114f3565b602f60f81b815260010190565b896114f3565b692f6e656761746976652f60b01b8152600a0190565b866114f3565b7f2e6a706722206865696768743d2232313630222077696474683d22323136302281527f3e3c616e696d617465206174747269627574654e616d653d226f70616369747960208201527f222066726f6d3d22312220746f3d223022206475723d22302e3473222062656760408201527f696e3d22706f7369746976652e626567696e222066696c6c3d22667265657a6560608201527f222f3e3c616e696d617465206174747269627574654e616d653d226f7061636960808201527f7479222066726f6d3d22302220746f3d223122206475723d22302e347322206260a08201527f6567696e3d226e656761746976652e626567696e222066696c6c3d226672656560c08201527f7a65222f3e3c2f696d6167653e3c212d2d20434f4e54524f4c53202d2d3e3c7260e08201527f6563742077696474683d223022206865696768743d2232313630222066696c6c6101008201527f3d227472616e73706172656e74223e3c616e696d6174652061747472696275746101208201527f654e616d653d227769647468222066726f6d3d22323136302220746f3d2230226101408201527f206475723d22302e34732220626567696e3d22636c69636b222066696c6c3d226101608201527f667265657a65222069643d226e6567617469766522202f3e3c616e696d6174656101808201527f206174747269627574654e616d653d227769647468222066726f6d3d223022206101a08201527f746f3d223231363022206475723d22302e34732220626567696e3d22706f73696101c08201527f746976652e626567696e222066696c6c3d22667265657a6522202f3e3c2f72656101e08201527f63743e3c726563742077696474683d223231363022206865696768743d2232316102008201527f3630222066696c6c3d227472616e73706172656e74223e3c616e696d617465206102208201527f6174747269627574654e616d653d227769647468222066726f6d3d22302220746102408201527f6f3d223231363022206475723d22302e34732220626567696e3d226e656761746102608201527f6976652e626567696e222066696c6c3d22667265657a6522202f3e3c616e696d6102808201527f617465206174747269627574654e616d653d227769647468222066726f6d3d226102a08201527f323136302220746f3d223022206475723d22302e34732220626567696e3d22636102c08201527f6c69636b222066696c6c3d22667265657a65222069643d22706f7369746976656102e08201527f22202f3e3c2f726563743e3c2f7376673e0000000000000000000000000000006103008201526103110190565b9998505050505050505050565b7f7b226964223a2000000000000000000000000000000000000000000000000000815260008751611b38816007850160208c016111e7565b7f2c226e616d65223a2022000000000000000000000000000000000000000000006007918401918201528751611b75816011840160208c016111e7565b7f222c226465736372697074696f6e223a20224469676974616c204e6567617469601192909101918201527f76652c204c6174656e742028000000000000000000000000000000000000000060318201528651611bd981603d840160208b016111e7565b7f206f6620383029222c22696d616765223a2022697066733a2f2f000000000000603d92909101918201528551611c17816057840160208a016111e7565b611cec611c77611c71611c48611c42605786880101692f6e656761746976652f60b01b8152600a0190565b8a6114f3565b7f2e6a7067222c22616e696d6174696f6e5f75726c223a20220000000000000000815260180190565b876114f3565b7f222c2261747472696275746573223a205b7b2274726169745f74797065223a2081527f22417274697374222c2276616c7565223a20224a61636b20427574636865722260208201527f7d5d7d0000000000000000000000000000000000000000000000000000000000604082015260430190565b9a9950505050505050505050565b60006020808385031215611d0d57600080fd5b825167ffffffffffffffff80821115611d2557600080fd5b818501915085601f830112611d3957600080fd5b815181811115611d4b57611d4b61133c565b8060051b611d5a858201611352565b9182528381018501918581019089841115611d7457600080fd5b86860192505b83831015611af357825185811115611d925760008081fd5b8601603f81018b13611da45760008081fd5b878101516040611db66113b983611383565b8281528d82848601011115611dcb5760008081fd5b611dda838c83018487016111e7565b85525050509186019190860190611d7a565b634e487b7160e01b600052601160045260246000fd5b8181038181111561041157610411611dec565b634e487b7160e01b600052603260045260246000fd5b7f7b226e616d65223a202200000000000000000000000000000000000000000000815260008451611e6381600a8501602089016111e7565b7f222c226465736372697074696f6e223a20220000000000000000000000000000600a918401918201528451611ea081601c8401602089016111e7565b7f222c22696d616765223a2022697066733a2f2f00000000000000000000000000601c92909101918201528351611ede81602f8401602088016111e7565b7f2f706f7369746976652f312e6a7067227d000000000000000000000000000000602f929091019182015260400195945050505050565b7f646174613a6170706c69636174696f6e2f6a736f6e3b6261736536342c000000815260008251611f4d81601d8501602087016111e7565b91909101601d0192915050565b60006001600160a01b03808716835280861660208401525083604083015260806060830152611f8c608083018461120b565b9695505050505050565b600060208284031215611fa857600080fd5b815161073f816111b1565b8082018082111561041157610411611dec565b600082611fe357634e487b7160e01b600052601260045260246000fd5b500490565b808202811582820484141761041157610411611dec565b7f646174613a0000000000000000000000000000000000000000000000000000008152600083516120378160058501602088016111e7565b7f3b6261736536342c000000000000000000000000000000000000000000000000600591840191820152835161207481600d8401602088016111e7565b01600d0194935050505056fe4142434445464748494a4b4c4d4e4f505152535455565758595a6162636465666768696a6b6c6d6e6f707172737475767778797a303132333435363738392b2f516d4e543870426b746a666851764c4b3759414775624645426e315a31444b444d357a47747975667557694b77533830207375727265616c69737420776f726b73206578706c6f72696e6720746865207370616365206265747765656e207265616c20616e64207265616c697a65642c207072656d696572696e672061742050617269732050686f746f2032303234206f6e207375727265616c69736d27732063656e74656e6e69616c2e204561636820746f6b656e2073657276657320617320616e206f726967696e616c206469676974616c206e656761746976652c206d6174657269616c697a696e672061732053696c7665722047656c6174696e205072696e747320766961205061726973277320686973746f72696320504943544f206c61626f7261746f72792ea264697066735822122097d61755283d3fe402cfd6d18483bd16ab81aa55d2fb1e07734c4a23ea98484964736f6c63430008180033",
  "linkReferences": {},
  "deployedLinkReferences": {}
}